:100000000C9462000C948A000C948A000C948A0070
:100010000C948A000C948A000C948A000C948A0038
:100020000C948A000C948A000C948A000C948A0028
:100030000C948A000C948A000C948A000C948A0018
:100040000C942F010C948A000C94C9020C948A0021
:100050000C948A000C948A000C948A000C948A00F8
:100060000C948A000C948A000000000024002700F1
:100070002A0000000000250028002B0000000000DE
:1000800023002600290004040404040404040202DA
:100090000202020203030303030301020408102007
:1000A0004080010204081020010204081020000012
:1000B0000007000201000003040600000000000029
:1000C0000000120411241FBECFEFD8E0DEBFCDBF69
:1000D00011E0A0E0B1E0E6E3FEE002C005900D9281
:1000E000AC30B107D9F711E0ACE0B1E001C01D922E
:1000F000A23CB107E1F710E0C4ECD0E004C02297C5
:10010000FE010E941507C23CD107C9F70E942801D1
:100110000C9419070C94000087E061E00E94DB0159
:1001200087E060E00E94FB0162E070E080E090E028
:100130000E94770187E061E00E94FB0165E070E0CA
:1001400080E090E00E94770187E060E00E94FB0180
:1001500087E060E00E94DB0187E061E020E432E4B8
:100160004FE050E00E9448020E94040620E030E088
:100170004AE754E40E9469050E94D1059B017093EF
:100180000D0160930C0170930F0160930E01709349
:100190001101609310017093130160931201709329
:1001A0001501609314017093170160931601709309
:1001B00019016093180170931B0160931A017093E9
:1001C0001D0160931C0170931F0160931E01CB0100
:1001D000880F991F880F991F820F931F820F931FFB
:1001E000820F931F820F931F820F931F820F931F03
:1001F0006AE070E00E94AF066093200170932101D5
:100200008FEA91E00E94590564E670E080E090E09A
:100210000E9477018091200190912101419724F45F
:100220008091000161E003C08091000160E00E94C4
:10023000FB0108958091000161E00E94DB018FEADB
:1002400091E040E855E260E070E00E940603089506
:100250000E94A1010E941A010E948C00FDCF1F92F2
:100260000F920FB60F9211242F933F938F939F936A
:10027000AF93BF938091260190912701A09128010F
:10028000B091290130912A010196A11DB11D232FA2
:100290002D5F2D3720F02D570196A11DB11D209304
:1002A0002A018093260190932701A0932801B093FF
:1002B00029018091220190912301A0912401B09104
:1002C00025010196A11DB11D809322019093230168
:1002D000A0932401B0932501BF91AF919F918F917D
:1002E0003F912F910F900FBE0F901F901895EF9296
:1002F000FF920F931F937B018C018FB7F89440916D
:1003000026015091270160912801709129018FBF2A
:100310002FB7F8948091260190912701A091280190
:10032000B09129012FBF841B950BA60BB70BE816C4
:10033000F9060A071B0760F71F910F91FF90EF90D6
:100340000895789484B5826084BD84B5816084BD4D
:1003500085B5826085BD85B5816085BDEEE6F0E03E
:10036000808181608083E1E8F0E080818260808329
:10037000808181608083E0E8F0E08081816080831B
:10038000E1EBF0E0808184608083E0EBF0E080814D
:1003900081608083EAE7F0E08081846080838081EF
:1003A0008260808380818160808380818068808397
:1003B0001092C1000895282F30E0C90186569F4F42
:1003C000FC0194912A573F4FF9018491882391F0C1
:1003D000E82FF0E0EE0FFF1FE859FF4FA591B49111
:1003E000662329F48C91909589238C9308958C91A0
:1003F000892B8C930895482F50E0CA0182559F4F56
:10040000FC012491CA0186569F4FFC0194914A57E2
:100410005F4FFA0134913323D1F1222331F123309C
:1004200021F4809180008F7705C0243031F48091D1
:1004300080008F7D8093800018C0213019F484B52E
:100440008F7704C0223021F484B58F7D84BD0DC028
:10045000263021F48091B0008F7705C0273029F431
:100460008091B0008F7D8093B000E32FF0E0EE0F1D
:10047000FF1FEE58FF4FA591B491662329F48C918C
:10048000909589238C9308958C91892B8C93089552
:10049000DF92EF92FF920F931F93A82FB0E0CD0150
:1004A00086569F4FFC01D490AA57BF4FFD018491FF
:1004B000662311F490E001C09D2D6FEFE62E6FEFE3
:1004C000F62E6FEF062F6FE0162FE222F3220423A1
:1004D0001523682F70E0660F771F64587F4F20E068
:1004E00030E040E050E0FB01A591B4910AC02E1528
:1004F0003F054007510709F440C02F5F3F4F4F4F62
:100500005F4F8C918D21891791F30AC02E153F05FD
:100510004007510791F12F5F3F4F4F4F5F4F03C08F
:10052000FB01A591B4918C918D21891779F720E079
:1005300030E040E050E0FB01A591B49104C02F5F92
:100540003F4F4F4F5F4F8C918D218917C1F3CA01E7
:10055000B9012AE030E040E050E00E9490069B01A3
:10056000AC01205F3F4F4F4F5F4F84E0569547955A
:10057000379527958A95D1F704C020E030E040E018
:1005800050E0B901CA011F910F91FF90EF90DF90E9
:1005900008951F920F920FB60F9211242F933F933D
:1005A0004F935F936F937F938F939F93AF93BF937B
:1005B000EF93FF934091C600E091AB01F091AC0145
:1005C000CF01019660E870E00E94AF069C01809127
:1005D000AD019091AE012817390739F0E55DFE4F66
:1005E00040833093AC012093AB01FF91EF91BF9119
:1005F000AF919F918F917F916F915F914F913F91BB
:100600002F910F900FBE0F901F9018955F926F92D1
:100610007F928F929F92AF92BF92CF92DF92EF9292
:10062000FF920F931F93CF93DF93EC013A014B019D
:10063000413482E458078FE0680780E078070CF0C7
:100640007FC060E874E88EE190E0A40193010E940D
:10065000E4062150304040405040CA01B90122E038
:1006600030E040E050E00E94E40659016A01A60132
:100670009501209530954095509594E0220F331FB9
:10068000441F551F9A95D1F760E074E284EF90E023
:100690000E94E406CA01B9012FEF30E040E050E0CB
:1006A0000E949006A40193010E94E406C9018150B2
:1006B0009F4F181619061CF4522E5A9403C0552445
:1006C0005394521A60E079E08DE390E0A401930125
:1006D0000E94E4062150304040405040CA01B90118
:1006E00022E030E040E050E00E94E40620953095A2
:1006F0004095509583E0220F331F441F551F8A9564
:10070000D1F760E074E284EF90E00E94E406CA0151
:10071000B9012FEF30E040E050E00E949006A401C4
:1007200093010E94E406C90181509F4F18161906D3
:100730001CF4822F815002C081E0821B851500F5D8
:10074000E885F98581E090E00A8802C0880F991F4A
:100750000A94E2F7808360E079E08DE390E0A40101
:1007600093010E94E4062150304040405040CA01AD
:10077000B90122E030E040E050E00E94E40604C00D
:10078000E885F98510829501EC81FD813083EE8149
:10079000FF812083EA85FB85208141E050E0CA018A
:1007A0000E8402C0880F991F0A94E2F7282B208339
:1007B000EA85FB852081CA010F8402C0880F991F3A
:1007C0000A94E2F7282B2083EA85FB85808108883C
:1007D00002C0440F551F0A94E2F7842B8083DF91F7
:1007E000CF911F910F91FF90EF90DF90CF90BF902E
:1007F000AF909F908F907F906F905F900895FC01D5
:10080000A085B18521898C9190E0022E02C095953A
:1008100087950A94E2F780FFF6CF0484F585E02DF2
:100820006083089586E091E09093B0018093AF01DA
:100830008BE291E09093B2018093B10185EC90E05E
:100840009093B4018093B30184EC90E09093B6014F
:100850008093B50180EC90E09093B8018093B7014C
:1008600081EC90E09093BA018093B90186EC90E01E
:100870009093BC018093BB0184E08093BD0183E031
:100880008093BE0187E08093BF0185E08093C00123
:1008900081E08093C10108950F931F93CF93DF935D
:1008A0008C01EB0109C02196D801ED91FC910190DA
:1008B000F081E02DC801099568816623A1F7DF91D9
:1008C000CF911F910F910895EF92FF920F931F9375
:1008D000CF93DF938C017B01EA010CC0D7016D91AE
:1008E0007D01D801ED91FC910190F081E02DC801CE
:1008F00009952197209791F7DF91CF911F910F9143
:10090000FF90EF9008950F931F938C01DC01ED9100
:10091000FC910190F081E02D6DE00995D801ED91F9
:10092000FC910190F081E02DC8016AE009951F91CA
:100930000F9108952F923F924F925F926F927F9204
:100940008F929F92AF92BF92CF92DF92EF92FF92DF
:100950000F931F93DF93CF93CDB7DEB7A0970FB65A
:10096000F894DEBF0FBECDBF1C016A017B014115AB
:1009700051056105710549F4DC01ED91FC9101908F
:10098000F081E02D60E3099554C088249924540136
:10099000422E55246624772401E010E00C0F1D1F21
:1009A000080D191DC701B601A30192010E94C206DC
:1009B000F80160830894811C911CA11CB11CC70123
:1009C000B601A30192010E94C206C901DA016C01BD
:1009D0007D01C114D104E104F104F1F681E0E82EB7
:1009E000F12CEC0EFD1EE80CF91C3E010894611C74
:1009F000711CD501C4010197A109B1096C01C81886
:100A0000D90814C0F601EE0DFF1D60816A3010F4A4
:100A1000605D01C0695CD101ED91FC910190F081B4
:100A2000E02DC10109950894E108F1086E147F04D6
:100A300049F7A0960FB6F894DEBF0FBECDBFCF9199
:100A4000DF911F910F91FF90EF90DF90CF90BF90BB
:100A5000AF909F908F907F906F905F904F903F905E
:100A60002F900895EF92FF920F931F93CF93DF93F0
:100A7000EC017A018B0177FF0FC0E881F9810190C9
:100A8000F081E02D6DE2099510950095F094E094C9
:100A9000E11CF11C011D111DCE01B801A7012AE0C6
:100AA0000E949A04DF91CF911F910F91FF90EF90D8
:100AB00008950F931F938C01AB01662757FD609536
:100AC000762F0E943205C8010E9483041F910F9166
:100AD00008950CD0EBC0E3D040F0DAD030F021F430
:100AE0005F3F19F0CCC0511115C1CFC0F0D098F3C1
:100AF0009923C9F35523B1F3951B550BBB27AA279F
:100B000062177307840738F09F5F5F4F220F331F10
:100B1000441FAA1FA9F333D00E2E3AF0E0E830D0DC
:100B200091505040E695001CCAF729D0FE2F27D0DF
:100B3000660F771F881FBB1F261737074807AB07AD
:100B4000B0E809F0BB0B802DBF01FF2793585F4F22
:100B50002AF09E3F510568F092C0DCC05F3FECF385
:100B6000983EDCF3869577956795B795F7959F5FE7
:100B7000C9F7880F911D9695879597F90895E1E03B
:100B8000660F771F881FBB1F621773078407BA079A
:100B900020F0621B730B840BBA0BEE1F88F7E095F5
:100BA000089504D06894B111B5C0089598D088F024
:100BB0009F5790F0B92F9927B751A0F0D1F0660F49
:100BC000771F881F991F1AF0BA95C9F712C0B13064
:100BD00081F09FD0B1E008959CC0672F782F8827BF
:100BE000B85F39F0B93FCCF3869577956795B395A3
:100BF000D9F73EF490958095709561957F4F8F4F12
:100C00009F4F0895E89409C097FB3EF49095809516
:100C1000709561957F4F8F4F9F4F9923A9F0F92FC2
:100C200096E9BB279395F695879577956795B79540
:100C3000F111F8CFFAF4BB0F11F460FF1BC06F5F26
:100C40007F4F8F4F9F4F16C0882311F096E911C038
:100C5000772321F09EE8872F762F05C0662371F059
:100C600096E8862F70E060E02AF09A95660F771F6D
:100C7000881FDAF7880F9695879597F9089597F961
:100C80009F6780E870E060E008959FEF80EC089532
:100C900000240A941616170618060906089500245B
:100CA0000A9412161306140605060895092E0394D5
:100CB000000C11F4882352F0BB0F40F4BF2B11F449
:100CC00060FF04C06F5F7F4F8F4F9F4F089557FDA8
:100CD0009058440F551F59F05F3F71F04795880FAA
:100CE00097FB991F61F09F3F79F087950895121641
:100CF00013061406551FF2CF4695F1DF08C01616ED
:100D000017061806991FF1CF86957105610508949D
:100D10000895E894BB2766277727CB0197F90895B4
:100D2000629FD001739FF001829FE00DF11D649FCF
:100D3000E00DF11D929FF00D839FF00D749FF00D5B
:100D4000659FF00D9927729FB00DE11DF91F639FFC
:100D5000B00DE11DF91FBD01CF011124089597FBCE
:100D6000092E07260AD077FD04D049D006D00020EE
:100D70001AF4709561957F4F0895F6F790958195D7
:100D80009F4F0895A1E21A2EAA1BBB1BFD010DC0A7
:100D9000AA1FBB1FEE1FFF1FA217B307E407F5072B
:100DA00020F0A21BB30BE40BF50B661F771F881F07
:100DB000991F1A9469F760957095809590959B019D
:100DC000AC01BD01CF01089597FB092E05260ED079
:100DD00057FD04D0D7DF0AD0001C38F45095409559
:100DE000309521953F4F4F4F5F4F0895F6F79095FF
:100DF0008095709561957F4F8F4F9F4F0895AA1BE7
:100E0000BB1B51E107C0AA1FBB1FA617B70710F0F5
:100E1000A61BB70B881F991F5A95A9F78095909527
:100E2000BC01CD010895EE0FFF1F0590F491E02D58
:060E30000994F894FFCFC5
:0C0E36000D0000000000FF034C046404E9
:00000001FF
