:100000000C9462000C948A000C948A000C948A0070
:100010000C948A000C948A000C948A000C948A0038
:100020000C948A000C948A000C948A000C948A0028
:100030000C948A000C948A000C948A000C948A0018
:100040000C94AC010C948A000C9414030C948A0058
:100050000C948A000C948A000C948A000C948A00F8
:100060000C948A000C948A000000000024002700F1
:100070002A0000000000250028002B0000000000DE
:1000800023002600290004040404040404040202DA
:100090000202020203030303030301020408102007
:1000A0004080010204081020010204081020000012
:1000B0000007000201000003040600000000000029
:1000C00000005D0411241FBECFEFD8E0DEBFCDBF1E
:1000D00011E0A0E0B1E0E6E0FBE002C005900D9287
:1000E000A037B107D9F712E0A0E7B1E001C01D9237
:1000F000A631B107E1F710E0C4ECD0E004C02297CC
:10010000FE010E947D05C23CD107C9F70E94A501EE
:100110000C9481050C94000080915C010E94C50242
:10012000909371018093700180915E010E94C502DD
:100130009093730180937201809160010E94C502C7
:100140009C0190937501809374018091700190914E
:10015000710181309105D1F5809172019091730107
:10016000892B09F0C5C0232B09F0C2C083E092E0BF
:1001700060E071E00E94ED048091580161E00E940E
:10018000780260E570E080E090E00E94F4018091E8
:10019000580160E00E9478028091620161E00E9453
:1001A000780268E873E180E090E00E94F4018091B9
:1001B000620160E00E94780280915A0161E00E9431
:1001C000780266E470E080E090E072C0892B09F06C
:1001D0008FC080917201909173018130910599F5E2
:1001E000232B09F085C083E092E067E171E00E9473
:1001F000ED048091580161E00E94780269E370E0AB
:1002000080E090E00E94F4018091580160E00E943B
:1002100078028091620161E00E94780268E873E1EF
:1002200080E090E00E94F4018091620160E00E9411
:10023000780280915A0161E00E9478026DE270E0DC
:1002400080E090E035C0892B09F052C021303105A3
:10025000B9F583E092E06EE271E00E94ED048091D6
:10026000580161E00E94780268E470E080E090E06C
:100270000E94F4018091580160E00E947802809110
:10028000620161E00E94780268E873E180E090E03A
:100290000E94F4018091620160E00E9478028091E6
:1002A0005A0161E00E94780264E470E080E090E02E
:1002B0000E94F40180915A0160E00E947802089542
:1002C000232BB1F483E092E067E471E00E94ED0437
:1002D0008091580160E00E94780280915A0160E0AC
:1002E0000E94780264E670E080E090E00E94F401F1
:1002F000089580915C0160E00E94580280915E0147
:1003000060E00E9458028091600160E00E94580203
:100310008091580161E00E94580280915A0161E089
:100320000E94580283E092E040E855E260E070E00D
:100330000E9451038091620161E00E945802809105
:10034000640161E00E94580208950E941E020E940A
:1003500079010E948C00FDCF1F920F920FB60F9271
:1003600011242F933F938F939F93AF93BF938091CB
:100370007A0190917B01A0917C01B0917D01309137
:100380007E010196A11DB11D232F2D5F2D3720F079
:100390002D570196A11DB11D20937E0180937A01F6
:1003A00090937B01A0937C01B0937D0180917601B5
:1003B00090917701A0917801B09179010196A11DEA
:1003C000B11D8093760190937701A0937801B0934B
:1003D0007901BF91AF919F918F913F912F910F9094
:1003E0000FBE0F901F901895EF92FF920F931F93DF
:1003F0007B018C018FB7F89440917A0150917B0179
:1004000060917C0170917D018FBF2FB7F89480912E
:100410007A0190917B01A0917C01B0917D012FBF69
:10042000841B950BA60BB70BE816F9060A071B07EA
:1004300060F71F910F91FF90EF900895789484B525
:10044000826084BD84B5816084BD85B5826085BDD0
:1004500085B5816085BDEEE6F0E0808181608083B6
:10046000E1E8F0E080818260808380818160808328
:10047000E0E8F0E0808181608083E1EBF0E0808162
:1004800084608083E0EBF0E0808181608083EAE734
:10049000F0E08081846080838081826080838081BD
:1004A000816080838081806880831092C10008957C
:1004B000282F30E0C90186569F4FFC0194912A579E
:1004C0003F4FF9018491882391F0E82FF0E0EE0F7F
:1004D000FF1FE859FF4FA591B491662329F48C9131
:1004E000909589238C9308958C91892B8C930895F2
:1004F000482F50E0CA0182559F4FFC012491CA0148
:1005000086569F4FFC0194914A575F4FFA013491F0
:100510003323D1F1222331F1233021F48091800063
:100520008F7705C0243031F4809180008F7D8093D7
:10053000800018C0213019F484B58F7704C02230B0
:1005400021F484B58F7D84BD0DC0263021F48091C7
:10055000B0008F7705C0273029F48091B0008F7DDF
:100560008093B000E32FF0E0EE0FFF1FEE58FF4F37
:10057000A591B491662329F48C91909589238C934D
:1005800008958C91892B8C930895682F70E0CB018E
:1005900082559F4FFC012491CB0186569F4FFC0151
:1005A00044916A577F4FFB019491992319F420E0FD
:1005B00030E038C0222331F1233021F480918000D3
:1005C0008F7705C0243031F4809180008F7D809337
:1005D000800018C0213019F484B58F7704C0223010
:1005E00021F484B58F7D84BD0DC0263021F4809127
:1005F000B0008F7705C0273029F48091B0008F7D3F
:100600008093B000892F90E0880F991F84589F4FE6
:10061000FC01A591B4918C9120E030E0842311F08D
:1006200021E030E0C90108951F920F920FB60F929A
:1006300011242F933F934F935F936F937F938F93E7
:100640009F93AF93BF93EF93FF934091C600E091C8
:10065000FF01F0910002CF01019660E870E00E9476
:1006600017059C0180910102909102022817390719
:1006700039F0E158FE4F4083309300022093FF0190
:10068000FF91EF91BF91AF919F918F917F916F916A
:100690005F914F913F912F910F900FBE0F901F9040
:1006A00018955F926F927F928F929F92AF92BF92B6
:1006B000CF92DF92EF92FF920F931F93CF93DF932E
:1006C000EC013A014B01413482E458078FE068079E
:1006D00080E078070CF07FC060E874E88EE190E07D
:1006E000A40193010E944C052150304040405040ED
:1006F000CA01B90122E030E040E050E00E944C0520
:1007000059016A01A60195012095309540955095B3
:1007100094E0220F331F441F551F9A95D1F760E0D4
:1007200074E284EF90E00E944C05CA01B9012FEFFA
:1007300030E040E050E00E94F804A40193010E94E0
:100740004C05C90181509F4F181619061CF4522EF2
:100750005A9403C055245394521A60E079E08DE313
:1007600090E0A40193010E944C052150304040408C
:100770005040CA01B90122E030E040E050E00E9460
:100780004C05209530954095509583E0220F331FFE
:10079000441F551F8A95D1F760E074E284EF90E022
:1007A0000E944C05CA01B9012FEF30E040E050E053
:1007B0000E94F804A40193010E944C05C9018150D4
:1007C0009F4F181619061CF4822F815002C081E039
:1007D000821B851500F5E885F98581E090E00A889F
:1007E00002C0880F991F0A94E2F7808360E079E0E5
:1007F0008DE390E0A40193010E944C05215030400C
:1008000040405040CA01B90122E030E040E050E0F1
:100810000E944C0504C0E885F98510829501EC81A1
:10082000FD813083EE81FF812083EA85FB85208175
:1008300041E050E0CA010E8402C0880F991F0A945B
:10084000E2F7282B2083EA85FB852081CA010F84EB
:1008500002C0880F991F0A94E2F7282B2083EA85AB
:10086000FB858081088802C0440F551F0A94E2F777
:10087000842B8083DF91CF911F910F91FF90EF9098
:10088000DF90CF90BF90AF909F908F907F906F90B0
:100890005F900895FC01A085B18521898C9190E03D
:1008A000022E02C0959587950A94E2F780FFF6CF55
:1008B0000484F585E02D608308958AE691E09093A5
:1008C0000402809303028FE791E0909306028093E5
:1008D000050285EC90E0909308028093070284EC77
:1008E00090E090930A028093090280EC90E090934C
:1008F0000C0280930B0281EC90E090930E028093A7
:100900000D0286EC90E09093100280930F0284E039
:100910008093110283E08093120287E08093130298
:1009200085E08093140281E08093150208950F936F
:100930001F93CF93DF938C01EB0109C02196D8015F
:10094000ED91FC910190F081E02DC801099568813D
:100950006623A1F7DF91CF911F910F910895EF9238
:10096000FF920F931F93CF93DF938C017B01EA01DA
:100970000CC0D7016D917D01D801ED91FC910190E2
:10098000F081E02DC80109952197209791F7DF911B
:10099000CF911F910F91FF90EF900895DC01ED91A1
:1009A000FC910280F381E02D099508950F931F9328
:1009B0008C01DC01ED91FC910190F081E02D6DE066
:1009C0000995D801ED91FC910190F081E02DC801CD
:1009D0006AE009951F910F9108950F931F938C0161
:1009E0000E94CE04C8010E94D6041F910F91089561
:1009F000629FD001739FF001829FE00DF11D649F03
:100A0000E00DF11D929FF00D839FF00D749FF00D8E
:100A1000659FF00D9927729FB00DE11DF91F639F2F
:100A2000B00DE11DF91FBD01CF011124089597FB01
:100A3000092E07260AD077FD04D049D006D0002021
:100A40001AF4709561957F4F0895F6F7909581950A
:100A50009F4F0895A1E21A2EAA1BBB1BFD010DC0DA
:100A6000AA1FBB1FEE1FFF1FA217B307E407F5075E
:100A700020F0A21BB30BE40BF50B661F771F881F3A
:100A8000991F1A9469F760957095809590959B01D0
:100A9000AC01BD01CF01089597FB092E05260ED0AC
:100AA00057FD04D0D7DF0AD0001C38F4509540958C
:100AB000309521953F4F4F4F5F4F0895F6F7909532
:100AC0008095709561957F4F8F4F9F4F0895AA1B1A
:100AD000BB1B51E107C0AA1FBB1FA617B70710F029
:100AE000A61BB70B881F991F5A95A9F7809590955B
:100AF000BC01CD010895EE0FFF1F0590F491E02D8C
:060B00000994F894FFCFF8
:100B0600427574746F6E204F6E6520697320507243
:100B160065737365642100427574746F6E20547733
:100B26006F20697320507265737365642100427586
:100B360074746F6E205468726565206973205072F4
:100B4600657373656421004E6F20627574746F6EF1
:100B560020416374696F6E000600050008000900F5
:100B66000A0002000300000000004A049704AF04D4
:00000001FF
