:100000000C9461000C947E000C947E000C947E0095
:100010000C947E000C947E000C947E000C947E0068
:100020000C947E000C947E000C947E000C947E0058
:100030000C947E000C947E000C947E000C947E0048
:100040000C94A2010C947E000C947E000C947E0013
:100050000C947E000C947E000C947E000C947E0028
:100060000C947E000C947E00000000002400270009
:100070002A0000000000250028002B0000000000DE
:1000800023002600290004040404040404040202DA
:100090000202020203030303030301020408102007
:1000A0004080010204081020010204081020000012
:1000B0000007000201000003040600000000000029
:1000C000000011241FBECFEFD8E0DEBFCDBF11E08E
:1000D000A0E0B1E0EAE7F5E002C005900D92AE3095
:1000E000B107D9F711E0AEE0B1E001C01D92A73130
:1000F000B107E1F70E949B010C94BB020C94000035
:100100008091000161E00E946E028091020160E036
:100110000E946E028091040160E00E946E02809154
:10012000060160E00E946E028091080160E00E947A
:100130006E0280910A0160E00E946E0280910C01C3
:1001400061E00E946E0264EF71E080E090E00E9446
:10015000EA018091000160E00E946E02809102013C
:1001600061E00E946E028091040160E00E946E02D4
:100170008091060160E00E946E028091080160E0BB
:100180000E946E0280910A0160E00E946E028091DE
:100190000C0160E00E946E0264EF71E080E090E08C
:1001A0000E94EA018091000160E00E946E0280914D
:1001B000020160E00E946E028091040161E00E94F1
:1001C0006E028091060160E00E946E02809108013B
:1001D00060E00E946E0280910A0160E00E946E025F
:1001E00080910C0161E00E946E0264EF71E080E09A
:1001F00090E00E94EA018091000160E00E946E029E
:100200008091020160E00E946E028091040160E032
:100210000E946E028091060161E00E946E02809150
:10022000080160E00E946E0280910A0160E00E9475
:100230006E0280910C0160E00E946E0264EF71E03A
:1002400080E090E00E94EA018091000160E00E945D
:100250006E028091020160E00E946E0280910401B2
:1002600060E00E946E028091060160E00E946E02D2
:100270008091080161E00E946E0280910A0160E0B5
:100280000E946E0280910C0161E00E946E0264EF98
:1002900071E080E090E00E94EA018091000160E05E
:1002A0000E946E028091020160E00E946E028091C5
:1002B000040160E00E946E028091060160E00E94ED
:1002C0006E028091080160E00E946E0280910A0136
:1002D00061E00E946E0280910C0160E00E946E025B
:1002E00064EF71E080E090E00E94EA01089580915F
:1002F000000161E00E944E028091020161E00E94D3
:100300004E028091040161E00E944E02809106013C
:1003100061E00E944E028091080161E00E944E025D
:1003200080910A0161E00E944E0280910C0161E01F
:100330000E944E0208950E9414020E9477010E94BA
:100340008000FDCF1F920F920FB60F9211242F93B2
:100350003F938F939F93AF93BF938091120190919E
:100360001301A0911401B09115013091160101966D
:10037000A11DB11D232F2D5F2D3720F02D57019684
:10038000A11DB11D209316018093120190931301BA
:10039000A0931401B093150180910E0190910F016B
:1003A000A0911001B09111010196A11DB11D809382
:1003B0000E0190930F01A0931001B0931101BF9112
:1003C000AF919F918F913F912F910F900FBE0F9002
:1003D0001F901895EF92FF920F931F937B018C0152
:1003E0008FB7F8944091120150911301609114015C
:1003F000709115018FBF2FB7F894809112019091E1
:100400001301A0911401B09115012FBF841B950B0E
:10041000A60BB70BE816F9060A071B0760F71F9132
:100420000F91FF90EF900895789484B5826084BD19
:1004300084B5816084BD85B5826085BD85B58160E8
:1004400085BDEEE6F0E0808181608083E1E8F0E048
:10045000808182608083808181608083E0E8F0E039
:10046000808181608083E1EBF0E080818460808323
:10047000E0EBF0E0808181608083EAE7F0E080815A
:1004800084608083808182608083808181608083BA
:100490008081806880831092C1000895282F30E009
:1004A000C90186569F4FFC0194912A573F4FF9018D
:1004B0008491882391F0E82FF0E0EE0FFF1FE859B8
:1004C000FF4FA591B491662329F48C9190958923CF
:1004D0008C9308958C91892B8C930895482F50E02C
:1004E000CA0182559F4FFC012491CA0186569F4F35
:1004F000FC0194914A575F4FFA0134913323D1F1B3
:10050000222331F1233021F4809180008F7705C0C0
:10051000243031F4809180008F7D8093800018C05A
:10052000213019F484B58F7704C0223021F484B5CA
:100530008F7D84BD0DC0263021F48091B0008F776F
:1005400005C0273029F48091B0008F7D8093B000E2
:10055000E32FF0E0EE0FFF1FEE58FF4FA591B4918F
:10056000662329F48C91909589238C9308958C911E
:0A057000892B8C930895F894FFCFB7
:0E057A00020003000400050006000700080050
:00000001FF
