:100000000C9463000C948B000C948B000C948B006C
:100010000C948B000C948B000C948B000C948B0034
:100020000C948B000C948B000C948B000C946A0144
:100030000C948B000C948B000C948B000C948B0014
:100040000C94C9020C948B000C94E2030C948B006A
:100050000C948B000C948B000C948B000C948B00F4
:100060000C948B000C948B000000000024002700EF
:100070002A0000000000250028002B0000000000DE
:1000800023002600290004040404040404040202DA
:100090000202020203030303030301020408102007
:1000A0004080010204081020010204081020000012
:1000B0000007000201000003040600000000000029
:1000C00000002702670511241FBECFEFD8E0DEBF76
:1000D000CDBF11E0A0E0B1E0EEEDFCE002C0059084
:1000E0000D92AA30B107D9F711E0AAE0B1E001C042
:1000F0001D92AD3DB107E1F710E0C6ECD0E004C0C1
:100100002297FE010E946906C23CD107C9F70E94EE
:10011000C2020C946D060C940000FC0180910A014F
:100120008C3090F480838F5F80930A01815090E03F
:10013000FC01EE0FFF1FE80FF91FE55FFE4F88EB94
:100140009BE09283818308958FEF80830895FC0163
:1001500020812C30C0F58181992787FD909548E852
:1001600050E0481B590B440F551F440F551F64178F
:10017000750784F08281992787FD909548E552E0C4
:10018000481B590B440F551F440F551F6417750723
:100190000CF4AB01CA01AA2797FDA095BA2F0697C8
:1001A000A109B109880F991FAA1FBB1F4FB7F89467
:1001B00030E0F901EE0FFF1FE20FF31FE55FFE4F86
:1001C000928381834FBF0895CF92DF92EF92FF9287
:1001D0001F93CF93DF93EC01162F7A016901888179
:1001E0008C3008F064C0862F61E00E94750388811E
:1001F00090E0FC01EE0FFF1FE80FF91FE55FFE4FD7
:100200001F738081807C812B808380E292E08E1935
:100210009F0964E070E00E940306698380E699E02C
:100220008C199D0964E070E00E9403066A83A8812E
:100230008A2F6CE00E94F705682F70E0AB01440F35
:10024000551F460F571F440F551F440F551F20E0E1
:1002500030E0C901840F951FFC01EE0FFF1FE80F6E
:10026000F91FE55FFE4F808186FD15C02F5F3F4F70
:100270002C30310571F724C01092800082E0809309
:1002800081001092850010928400B19A80916F00D5
:10029000826080936F008A2F90E0FC01EE0FFF1FB9
:1002A000E80FF91FE55FFE4F8081806480838881BD
:1002B000DF91CF911F91FF90EF90DF90CF90089545
:1002C000672BD1F2E8CF40E252E020E639E00E940D
:1002D000E40008951F920F920FB60F9211242F93EE
:1002E0003F934F935F936F937F938F939F93AF93BE
:1002F000BF93EF93FF9380912F0187FF05C010926A
:100300008500109284002BC020912F01332727FDF8
:10031000309580910A0190E02817390704F5809103
:100320002F01992787FD9095FC01EE0FFF1FE80F25
:10033000F91FE55FFE4F808186FF11C080912F017C
:10034000992787FD9095FC01EE0FFF1FE80FF91F1D
:10035000E55FFE4F80818F7360E00E94950380917E
:100360002F018F5F80932F0120912F01332727FDCD
:10037000309580910A0190E0281739070CF04EC0A3
:1003800080912F018C300CF049C020918400309175
:10039000850080912F01992787FD9095FC01EE0F34
:1003A000FF1FE80FF91FE55FFE4F81819281280F43
:1003B000391F309389002093880080912F0199275D
:1003C00087FD9095FC01EE0FFF1FE80FF91FE55F19
:1003D000FE4F808186FF2AC080912F01992787FDDB
:1003E0009095FC01EE0FFF1FE80FF91FE55FFE4F30
:1003F00080818F7361E00E94950318C080E49CE9BE
:1004000005C08091840090918500049690938900A6
:10041000809388008FEF80932F0108C08091840023
:100420009091850084549C4948F3EBCFFF91EF9164
:10043000BF91AF919F918F917F916F915F914F91FC
:100440003F912F910F900FBE0F901F90189580E352
:1004500091E00E948D0008950F931F93CF93DF9337
:100460008AEC91E00E941805882309F062C06CC0F4
:100470008AEC91E00E942C0520913B0130913C01D7
:10048000F901EE0FFF1FED5CFE4F8053992787FDAA
:100490009095918380832F5F3F4F30933C01209351
:1004A0003B01243031050CF448C080913301909118
:1004B0003401809FB001819F700D909F700D1124B9
:1004C00080913501909136019C012C9FC0012D9F98
:1004D000900D3C9F900D1124680F791F8091390178
:1004E00090913A01680F791F8091370190913801FE
:1004F0009C0153E0220F331F5A95E1F7880F991F93
:10050000280F391F620F731F80E391E00E94A7003C
:1005100068EE73E080E090E00E94110380E391E0D8
:100520006EEE75E00E94A70010923C0110923B0114
:1005300004C008EE13E0C4E6D0E08AEC91E00E942B
:100540001805882309F094CFDF91CF911F910F9167
:1005500008950F931F938AEC91E040E855E260E024
:1005600070E00E941F0400E311E0C80169E070E040
:100570000E946301C8016EEE75E00E94A7001F9102
:100580000F9108950E943B030E94A9020E942C0231
:10059000FDCF1F920F920FB60F9211242F933F930E
:1005A0008F939F93AF93BF938091410190914201AC
:1005B000A0914301B0914401309145010196A11DE4
:1005C000B11D232F2D5F2D3720F02D570196A11D32
:1005D000B11D209345018093410190934201A09366
:1005E0004301B093440180913D0190913E01A0915F
:1005F0003F01B09140010196A11DB11D80933D01C5
:1006000090933E01A0933F01B0934001BF91AF9101
:100610009F918F913F912F910F900FBE0F901F9040
:100620001895EF92FF920F931F937B018C018FB768
:10063000F8944091410150914201609143017091C1
:1006400044018FBF2FB7F8948091410190914201EE
:10065000A0914301B09144012FBF841B950BA60BC1
:10066000B70BE816F9060A071B0760F71F910F91F1
:10067000FF90EF900895789484B5826084BD84B52E
:10068000816084BD85B5826085BD85B5816085BD8D
:10069000EEE6F0E0808181608083E1E8F0E0808137
:1006A00082608083808181608083E0E8F0E08081E7
:1006B00081608083E1EBF0E0808184608083E0EB07
:1006C000F0E0808181608083EAE7F0E080818460EF
:1006D000808380818260808380818160808380814B
:1006E000806880831092C1000895282F30E0C901EE
:1006F00086569F4FFC0194912A573F4FF9018491F0
:10070000882391F0E82FF0E0EE0FFF1FE859FF4F2C
:10071000A591B491662329F48C91909589238C93AB
:1007200008958C91892B8C930895482F50E0CA012D
:1007300082559F4FFC012491CA0186569F4FFC01B0
:1007400094914A575F4FFA0134913323D1F1222318
:1007500031F1233021F4809180008F7705C024305F
:1007600031F4809180008F7D8093800018C021300B
:1007700019F484B58F7704C0223021F484B58F7DBD
:1007800084BD0DC0263021F48091B0008F7705C064
:10079000273029F48091B0008F7D8093B000E32F43
:1007A000F0E0EE0FFF1FEE58FF4FA591B4916623C6
:1007B00029F48C91909589238C9308958C91892BA1
:1007C0008C9308951F920F920FB60F9211242F93BE
:1007D0003F934F935F936F937F938F939F93AF93C9
:1007E000BF93EF93FF934091C600E091C601F09153
:1007F000C701CF01019660E870E00E9403069C01EA
:100800008091C8019091C9012817390739F0EA5B36
:10081000FE4F40833093C7012093C601FF91EF91B3
:10082000BF91AF919F918F917F916F915F914F9108
:100830003F912F910F900FBE0F901F9018955F92D0
:100840006F927F928F929F92AF92BF92CF92DF92E0
:10085000EF92FF920F931F93CF93DF93EC013A0136
:100860004B01413482E458078FE0680780E0780745
:100870000CF07FC060E874E88EE190E0A401930181
:100880000E9438062150304040405040CA01B90112
:1008900022E030E040E050E00E94380659016A0151
:1008A000A6019501209530954095509594E0220F32
:1008B000331F441F551F9A95D1F760E074E284EF0F
:1008C00090E00E943806CA01B9012FEF30E040E005
:1008D00050E00E94D805A40193010E943806C90186
:1008E00081509F4F181619061CF4522E5A9403C0BB
:1008F00055245394521A60E079E08DE390E0A4010E
:1009000093010E9438062150304040405040CA01B7
:10091000B90122E030E040E050E00E943806209526
:1009200030954095509583E0220F331F441F551F8B
:100930008A95D1F760E074E284EF90E00E94380677
:10094000CA01B9012FEF30E040E050E00E94D80525
:10095000A40193010E943806C90181509F4F1816C7
:1009600019061CF4822F815002C081E0821B85157C
:1009700000F5E885F98581E090E00A8802C0880FDB
:10098000991F0A94E2F7808360E079E08DE390E0BC
:10099000A40193010E94380621503040404050404D
:1009A000CA01B90122E030E040E050E00E94380680
:1009B00004C0E885F98510829501EC81FD813083C2
:1009C000EE81FF812083EA85FB85208141E050E0B4
:1009D000CA010E8402C0880F991F0A94E2F7282BDF
:1009E0002083EA85FB852081CA010F8402C0880F1D
:1009F000991F0A94E2F7282B2083EA85FB858081E2
:100A0000088802C0440F551F0A94E2F7842B8083A4
:100A1000DF91CF911F910F91FF90EF90DF90CF90DA
:100A2000BF90AF909F908F907F906F905F90089550
:100A3000DC011296ED91FC911397E058FF4F8191E4
:100A4000919180589F4F20813181821B930B60E8E8
:100A500070E00E9403060895CF93DF93DC011296A5
:100A6000ED91FC911397EF01CE57DF4F48815981EB
:100A7000E058FF4F80819181E058F040841795073E
:100A800019F42FEF3FEF0CC0E40FF51F2081CA01CE
:100A9000019660E870E00E9403069983888330E045
:100AA000C901DF91CF910895FC01A085B18521890D
:100AB0008C9190E0022E02C0959587950A94E2F7FA
:100AC00080FFF6CF0484F585E02D6083089584E0EF
:100AD00091E09093CB018093CA0186E491E09093DA
:100AE000CD018093CC0185EC90E09093CF01809371
:100AF000CE0184EC90E09093D1018093D00180EC02
:100B000090E09093D3018093D20181EC90E0909398
:100B1000D5018093D40186EC90E09093D701809327
:100B2000D60184E08093D80183E08093D90187E0E7
:100B30008093DA0185E08093DB0181E08093DC0122
:100B400008950F931F93CF93DF938C01EB0109C09E
:100B50002196D801ED91FC910190F081E02DC80122
:100B6000099568816623A1F7DF91CF911F910F91BD
:100B70000895EF92FF920F931F93CF93DF938C0111
:100B80007B01EA010CC0D7016D917D01D801ED9187
:100B9000FC910190F081E02DC801099521972097E3
:100BA00091F7DF91CF911F910F91FF90EF900895F2
:100BB000629FD001739FF001829FE00DF11D649F41
:100BC000E00DF11D929FF00D839FF00D749FF00DCD
:100BD000659FF00D9927729FB00DE11DF91F639F6E
:100BE000B00DE11DF91FBD01CF0111240895991B1E
:100BF00079E004C0991F961708F0961B881F7A9514
:100C0000C9F78095089597FB092E07260AD077FD2E
:100C100004D049D006D000201AF4709561957F4F1A
:100C20000895F6F7909581959F4F0895A1E21A2EA9
:100C3000AA1BBB1BFD010DC0AA1FBB1FEE1FFF1F80
:100C4000A217B307E407F50720F0A21BB30BE40BD0
:100C5000F50B661F771F881F991F1A9469F7609517
:100C60007095809590959B01AC01BD01CF010895D1
:100C700097FB092E05260ED057FD04D0D7DF0AD0EA
:100C8000001C38F450954095309521953F4F4F4FBB
:100C90005F4F0895F6F790958095709561957F4F19
:100CA0008F4F9F4F0895AA1BBB1B51E107C0AA1F7E
:100CB000BB1FA617B70710F0A61BB70B881F991FFD
:100CC0005A95A9F780959095BC01CD010895EE0F36
:0E0CD000FF1F0590F491E02D0994F894FFCFDA
:0A0CDE00000000005405A105B9054F
:00000001FF
