:100000000C9462000C948A000C948A000C948A0070
:100010000C948A000C948A000C948A000C948A0038
:100020000C948A000C948A000C948A000C948A0028
:100030000C948A000C948A000C948A000C948A0018
:100040000C9435010C948A000C94DD020C948A0007
:100050000C948A000C948A000C948A000C948A00F8
:100060000C948A000C948A000000000024002700F1
:100070002A0000000000250028002B0000000000DE
:1000800023002600290004040404040404040202DA
:100090000202020203030303030301020408102007
:1000A0004080010204081020010204081020000012
:1000B0000007000201000003040600000000000029
:1000C0000000260411241FBECFEFD4E0DEBFCDBF59
:1000D00011E0A0E0B1E0EAE1FFE002C005900D927E
:1000E000A231B107D9F711E0A2E1B1E001C01D9240
:1000F000AA3BB107E1F710E0C4ECD0E004C02297BE
:10010000FE010E948707C23CD107C9F70E942E0159
:100110000C948B070C9400008091000161E00E9418
:10012000EF018091000160E00E940F0282E090E008
:100130000E94A7018091000161E00E940F0285E00A
:1001400090E00E94A7018091000160E00E940F02F0
:100150008091000160E00E94EF018091000161E068
:100160000E940F028091000161E020E432E44FE040
:1001700050E00E945C02609312017093130180931F
:100180001401909315010E94110620E53DE848E610
:1001900052E40E947D0524E13EEA47EC5EE30E94C2
:1001A0009F060E94E5059B01AC01609316017093C8
:1001B00017018093180190931901CA0108950F93B4
:1001C0001F930E948C009B01AC018B0187EA91E098
:1001D000B9010E946D056AEF70E080E090E00E9436
:1001E0007D018091020160E00E940F028091040174
:1001F00061E00E940F020832110584F4809102012F
:1002000061E00E940F028091040160E00E940F02F1
:100210006AEF70E080E090E00E947D011F910F91F5
:10022000089587EA91E040E855E260E070E00E94BE
:100230001A038091000161E00E94EF0180910201A8
:1002400061E00E94EF018091040161E00E94EF01F2
:100250008091060160E00E94EF0108950E94B501BF
:100260000E9411010E94DF00FDCF1F920F920FB676
:100270000F9211242F933F938F939F93AF93BF932C
:1002800080911E0190911F01A0912001B091210148
:10029000309122010196A11DB11D232F2D5F2D3715
:1002A00020F02D570196A11DB11D209322018093AE
:1002B0001E0190931F01A0932001B0932101809112
:1002C0001A0190911B01A0911C01B0911D01019692
:1002D000A11DB11D80931A0190931B01A0931C01D5
:1002E000B0931D01BF91AF919F918F913F912F913D
:1002F0000F900FBE0F901F901895EF92FF920F93E3
:100300001F937B018C018FB7F89440911E0150918F
:100310001F0160912001709121018FBF2FB7F894C8
:1003200080911E0190911F01A0912001B0912101A7
:100330002FBF841B950BA60BB70BE816F9060A070F
:100340001B0760F71F910F91FF90EF9008950197A1
:1003500059F0FC01EE0FFF1FEE0FFF1F32978FB712
:10036000F8943197F1F78FBF0895789484B582603F
:1003700084BD84B5816084BD85B5826085BD85B549
:10038000816085BDEEE6F0E0808181608083E1E8F8
:10039000F0E0808182608083808181608083E0E8FA
:1003A000F0E0808181608083E1EBF0E08081846017
:1003B0008083E0EBF0E0808181608083EAE7F0E019
:1003C000808184608083808182608083808181607D
:1003D00080838081806880831092C1000895282FD7
:1003E00030E0C90186569F4FFC0194912A573F4F38
:1003F000F9018491882391F0E82FF0E0EE0FFF1FC0
:10040000E859FF4FA591B491662329F48C919095FA
:1004100089238C9308958C91892B8C930895482F70
:1004200050E0CA0182559F4FFC012491CA018656B3
:100430009F4FFC0194914A575F4FFA013491332347
:10044000D1F1222331F1233021F4809180008F7784
:1004500005C0243031F4809180008F7D809380002E
:1004600018C0213019F484B58F7704C0223021F4EC
:1004700084B58F7D84BD0DC0263021F48091B000FD
:100480008F7705C0273029F48091B0008F7D80934D
:10049000B000E32FF0E0EE0FFF1FEE58FF4FA591E5
:1004A000B491662329F48C91909589238C930895B7
:1004B0008C91892B8C930895DF92EF92FF920F938A
:1004C0001F93A82FB0E0CD0186569F4FFC01D4901A
:1004D000AA57BF4FFD018491662311F490E001C03B
:1004E0009D2D6FEFE62E6FEFF62E6FEF062F6FE06C
:1004F000162FE222F32204231523682F70E0660FE3
:10050000771F64587F4F20E030E040E050E0FB016F
:10051000A591B4910AC02E153F054007510709F473
:1005200040C02F5F3F4F4F4F5F4F8C918D218917F8
:1005300091F30AC02E153F054007510791F12F5F37
:100540003F4F4F4F5F4F03C0FB01A591B4918C917A
:100550008D21891779F720E030E040E050E0FB0181
:10056000A591B49104C02F5F3F4F4F4F5F4F8C91C7
:100570008D218917C1F3CA01B9012AE030E040E0BA
:1005800050E00E9402079B01AC01205F3F4F4F4F9C
:100590005F4F84E056954795379527958A95D1F713
:1005A00004C020E030E040E050E0B901CA011F91F2
:1005B0000F91FF90EF90DF9008951F920F920FB66A
:1005C0000F9211242F933F934F935F936F937F93D9
:1005D0008F939F93AF93BF93EF93FF934091C60088
:1005E000E091A301F091A401CF01019660E870E0D1
:1005F0000E9421079C018091A5019091A6012817D6
:10060000390739F0ED5DFE4F40833093A40120930C
:10061000A301FF91EF91BF91AF919F918F917F9136
:100620006F915F914F913F912F910F900FBE0F905F
:100630001F9018955F926F927F928F929F92AF92C8
:10064000BF92CF92DF92EF92FF920F931F93CF93BF
:10065000DF93EC013A014B01413482E458078FE00B
:10066000680780E078070CF07FC060E874E88EE1EE
:1006700090E0A40193010E94560721503040404071
:100680005040CA01B90122E030E040E050E00E9451
:10069000560759016A01A6019501209530954095AC
:1006A000509594E0220F331F441F551F9A95D1F7A0
:1006B00060E074E284EF90E00E945607CA01B9013D
:1006C0002FEF30E040E050E00E940207A4019301C8
:1006D0000E945607C90181509F4F181619061CF435
:1006E000522E5A9403C055245394521A60E079E074
:1006F0008DE390E0A40193010E9456072150304001
:1007000040405040CA01B90122E030E040E050E0F2
:100710000E945607209530954095509583E0220F12
:10072000331F441F551F8A95D1F760E074E284EFB0
:1007300090E00E945607CA01B9012FEF30E040E077
:1007400050E00E940207A40193010E945607C901CC
:1007500081509F4F181619061CF4822F815002C039
:1007600081E0821B851500F5E885F98581E090E040
:100770000A8802C0880F991F0A94E2F7808360E01C
:1007800079E08DE390E0A40193010E945607215087
:10079000304040405040CA01B90122E030E040E022
:1007A00050E00E94560704C0E885F9851082950143
:1007B000EC81FD813083EE81FF812083EA85FB851A
:1007C000208141E050E0CA010E8402C0880F991FC9
:1007D0000A94E2F7282B2083EA85FB852081CA0151
:1007E0000F8402C0880F991F0A94E2F7282B2083F8
:1007F000EA85FB858081088802C0440F551F0A9452
:10080000E2F7842B8083DF91CF911F910F91FF90AE
:10081000EF90DF90CF90BF90AF909F908F907F90A0
:100820006F905F900895FC01A085B18521898C911E
:1008300090E0022E02C0959587950A94E2F780FF1A
:10084000F6CF0484F585E02D608308958CE091E077
:100850009093A8018093A70183E291E09093AA016D
:100860008093A90185EC90E09093AC018093AB015B
:1008700084EC90E09093AE018093AD0180EC90E029
:100880009093B0018093AF0181EC90E09093B2011E
:100890008093B10186EC90E09093B4018093B30112
:1008A00084E08093B50183E08093B60187E0809374
:1008B000B70185E08093B80181E08093B901089584
:1008C0000F931F93CF93DF938C01EB0109C0219607
:1008D000D801ED91FC910190F081E02DC8010995BE
:1008E00068816623A1F7DF91CF911F910F91089541
:1008F000EF92FF920F931F93CF93DF938C017B01B5
:10090000EA010CC0D7016D917D01D801ED91FC91F8
:100910000190F081E02DC80109952197209791F76A
:10092000DF91CF911F910F91FF90EF9008950F935A
:100930001F938C01DC01ED91FC910190F081E02D81
:100940006DE00995D801ED91FC910190F081E02DC9
:10095000C8016AE009951F910F9108952F923F9267
:100960004F925F926F927F928F929F92AF92BF92BF
:10097000CF92DF92EF92FF920F931F93DF93CF936B
:10098000CDB7DEB7A0970FB6F894DEBF0FBECDBFD0
:100990001C016A017B01411551056105710549F48E
:1009A000DC01ED91FC910190F081E02D60E309956F
:1009B00054C0882499245401422E55246624772457
:1009C00001E010E00C0F1D1F080D191DC701B60135
:1009D000A30192010E943407F80160830894811CEE
:1009E000911CA11CB11CC701B601A30192010E9478
:1009F0003407C901DA016C017D01C114D104E1049D
:100A0000F104F1F681E0E82EF12CEC0EFD1EE80C6D
:100A1000F91C3E010894611C711CD501C4010197A9
:100A2000A109B1096C01C818D90814C0F601EE0D6E
:100A3000FF1D60816A3010F4605D01C0695CD10106
:100A4000ED91FC910190F081E02DC1010995089490
:100A5000E108F1086E147F0449F7A0960FB6F894E8
:100A6000DEBF0FBECDBFCF91DF911F910F91FF90E1
:100A7000EF90DF90CF90BF90AF909F908F907F903E
:100A80006F905F904F903F902F900895EF92FF925C
:100A90000F931F93CF93DF93EC017A018B0177FFC4
:100AA0000FC0E881F9810190F081E02D6DE2099598
:100AB00010950095F094E094E11CF11C011D111DAE
:100AC000CE01B801A7012AE00E94AE04DF91CF91C8
:100AD0001F910F91FF90EF9008950F931F938C013A
:100AE000AB01662757FD6095762F0E944605C80129
:100AF0000E9497041F910F9108950CD0E6C0DED09C
:100B000040F0D5D030F021F45F3F19F0C7C051114B
:100B100010C1CAC0EBD098F39923C9F35523B1F3A0
:100B2000951B550BBB27AA2762177307840738F05C
:100B30009F5F5F4F220F331F441FAA1FA9F333D0BB
:100B40000E2E3AF0E0E830D091505040E695001C6F
:100B5000CAF729D0FE2F27D0660F771F881FBB1F2B
:100B6000261737074807AB07B0E809F0BB0B802D05
:100B7000BF01FF2793585F4F2AF09E3F510568F051
:100B80008DC0D7C05F3FECF3983EDCF38695779538
:100B90006795B795F7959F5FC9F7880F911D969553
:100BA000879597F90895E1E0660F771F881FBB1FAF
:100BB000621773078407BA0720F0621B730B840B5C
:100BC000BA0BEE1F88F7E095089598D088F09F57EC
:100BD00090F0B92F9927B751A0F0D1F0660F771F89
:100BE000881F991F1AF0BA95C9F712C0B13081F069
:100BF0009FD0B1E008959CC0672F782F8827B85FF9
:100C000039F0B93FCCF3869577956795B395D9F7C9
:100C10003EF490958095709561957F4F8F4F9F4FD3
:100C20000895E89409C097FB3EF4909580957095DF
:100C300061957F4F8F4F9F4F9923A9F0F92F96E928
:100C4000BB279395F695879577956795B795F1119D
:100C5000F8CFFAF4BB0F11F460FF1BC06F5F7F4F3A
:100C60008F4F9F4F16C0882311F096E911C077234C
:100C700021F09EE8872F762F05C0662371F096E855
:100C8000862F70E060E02AF09A95660F771F881F24
:100C9000DAF7880F9695879597F9089597F99F67E2
:100CA00080E870E060E008959FEF80EC08950024F4
:100CB0000A941616170618060906089500240A94C1
:100CC00012161306140605060895092E0394000C47
:100CD00011F4882352F0BB0F40F4BF2B11F460FFD6
:100CE00004C06F5F7F4F8F4F9F4F089557FD9058FF
:100CF000440F551F59F05F3F71F04795880F97FBE0
:100D0000991F61F09F3F79F0879508951216130699
:100D10001406551FF2CF4695F1DF08C016161706C8
:100D20001806991FF1CF86957105610508940895FD
:100D3000E894BB2766277727CB0197F908950BD056
:100D4000C4CFB5DF28F0BADF18F0952309F0A6CF9D
:100D5000ABCF1124EECFCADFA0F3959FD1F3950F4F
:100D600050E0551F629FF001729FBB27F00DB11D2F
:100D7000639FAA27F00DB11DAA1F649F6627B00DBF
:100D8000A11D661F829F2227B00DA11D621F739FA8
:100D9000B00DA11D621F839FA00D611D221F749FB6
:100DA0003327A00D611D231F849F600D211D822FFD
:100DB000762F6A2F11249F5750408AF0E1F0882344
:100DC0004AF0EE0FFF1FBB1F661F771F881F915051
:100DD0005040A9F79E3F510570F060CFAACF5F3F0A
:100DE000ECF3983EDCF3869577956795B795F79584
:100DF000E7959F5FC1F7FE2B880F911D969587950C
:100E000097F90895629FD001739FF001829FE00DD2
:100E1000F11D649FE00DF11D929FF00D839FF00D79
:100E2000749FF00D659FF00D9927729FB00DE11D25
:100E3000F91F639FB00DE11DF91FBD01CF01112402
:100E4000089597FB092E07260AD077FD04D049D0D4
:100E500006D000201AF4709561957F4F0895F6F73B
:100E6000909581959F4F0895A1E21A2EAA1BBB1B56
:100E7000FD010DC0AA1FBB1FEE1FFF1FA217B30766
:100E8000E407F50720F0A21BB30BE40BF50B661F7C
:100E9000771F881F991F1A9469F760957095809540
:100EA00090959B01AC01BD01CF01089597FB092EE0
:100EB00005260ED057FD04D0D7DF0AD0001C38F429
:100EC00050954095309521953F4F4F4F5F4F089576
:100ED000F6F790958095709561957F4F8F4F9F4F56
:100EE0000895AA1BBB1B51E107C0AA1FBB1FA61771
:100EF000B70710F0A61BB70B881F991F5A95A9F7C3
:100F000080959095BC01CD010895EE0FFF1F0590CF
:0A0F1000F491E02D0994F894FFCF4E
:100F1A00020006000700020000000000130460043B
:020F2A00780449
:00000001FF
