:100000000C9461000C947E000C947E000C947E0095
:100010000C947E000C947E000C947E000C947E0068
:100020000C947E000C947E000C947E000C947E0058
:100030000C947E000C947E000C947E000C947E0048
:100040000C94B3000C947E000C947E000C947E0003
:100050000C947E000C947E000C947E000C947E0028
:100060000C947E000C947E00000000002400270009
:100070002A0000000000250028002B0000000000DE
:1000800023002600290004040404040404040202DA
:100090000202020203030303030301020408102007
:1000A0004080010204081020010204081020000012
:1000B0000007000201000003040600000000000029
:1000C000000011241FBECFEFD8E0DEBFCDBF11E08E
:1000D000A0E0B1E0ECE9F3E002C005900D92A4309D
:1000E000B107D9F711E0A4E0B1E001C01D92AD3035
:1000F000B107E1F70E94AC000C94CC010C94000015
:100100008091000161E00E947F018091020160E026
:100110000E947F0168EE73E080E090E00E94FB00A7
:100120008091000160E00E947F018091020160E007
:100130000E947F0168EE73E080E090E00E94FB0087
:1001400008958091000161E00E945F0180910201A9
:1001500061E00E945F0108950E9425010E94A100B4
:100160000E948000FDCF1F920F920FB60F921124B4
:100170002F933F938F939F93AF93BF9380910801E9
:1001800090910901A0910A01B0910B0130910C01ED
:100190000196A11DB11D232F2D5F2D3720F02D5766
:1001A0000196A11DB11D20930C018093080190932D
:1001B0000901A0930A01B0930B0180910401909171
:1001C0000501A0910601B09107010196A11DB11D85
:1001D0008093040190930501A0930601B093070159
:1001E000BF91AF919F918F913F912F910F900FBE33
:1001F0000F901F901895EF92FF920F931F937B0122
:100200008C018FB7F89440910801509109016091D9
:100210000A0170910B018FBF2FB7F89480910801EC
:1002200090910901A0910A01B0910B012FBF841B8D
:10023000950BA60BB70BE816F9060A071B0760F724
:100240001F910F91FF90EF900895789484B582608C
:1002500084BD84B5816084BD85B5826085BD85B56A
:10026000816085BDEEE6F0E0808181608083E1E819
:10027000F0E0808182608083808181608083E0E81B
:10028000F0E0808181608083E1EBF0E08081846038
:100290008083E0EBF0E0808181608083EAE7F0E03A
:1002A000808184608083808182608083808181609E
:1002B00080838081806880831092C1000895282FF8
:1002C00030E0C90186569F4FFC0194912A573F4F59
:1002D000F9018491882391F0E82FF0E0EE0FFF1FE1
:1002E000E859FF4FA591B491662329F48C9190951C
:1002F00089238C9308958C91892B8C930895482F92
:1003000050E0CA0182559F4FFC012491CA018656D4
:100310009F4FFC0194914A575F4FFA013491332368
:10032000D1F1222331F1233021F4809180008F77A5
:1003300005C0243031F4809180008F7D809380004F
:1003400018C0213019F484B58F7704C0223021F40D
:1003500084B58F7D84BD0DC0263021F48091B0001E
:100360008F7705C0273029F48091B0008F7D80936E
:10037000B000E32FF0E0EE0FFF1FEE58FF4FA59106
:10038000B491662329F48C91909589238C930895D8
:0C0390008C91892B8C930895F894FFCF7A
:04039C00080009004C
:00000001FF
