:100000000C9463000C948B000C948B000C948B006C
:100010000C948B000C948B000C948B000C948B0034
:100020000C948B000C948B000C948B000C946A0144
:100030000C948B000C948B000C948B000C948B0014
:100040000C943F060C948B000C9458070C948B0076
:100050000C948B000C948B000C948B000C948B00F4
:100060000C948B000C948B000000000024002700EF
:100070002A0000000000250028002B0000000000DE
:1000800023002600290004040404040404040202DA
:100090000202020203030303030301020408102007
:1000A0004080010204081020010204081020000012
:1000B0000007000201000003040600000000000029
:1000C00000002702DD0811241FBECFEFD8E0DEBFFD
:1000D000CDBF11E0A0E0B1E0E6EAF5E102C0059095
:1000E0000D92A832B107D9F712E0A8E2B1E001C041
:1000F0001D92AB36B107E1F710E0C6ECD0E004C0CA
:100100002297FE010E94CD0AC23CD107C9F70E9486
:1001100038060C94D10A0C940000FC01809128014F
:100120008C3090F480838F5F80932801815090E021
:10013000FC01EE0FFF1FE80FF91FE75DFE4F88EB94
:100140009BE09283818308958FEF80830895FC0163
:1001500020812C30C0F58181992787FD909548E852
:1001600050E0481B590B440F551F440F551F64178F
:10017000750784F08281992787FD909548E552E0C4
:10018000481B590B440F551F440F551F6417750723
:100190000CF4AB01CA01AA2797FDA095BA2F0697C8
:1001A000A109B109880F991FAA1FBB1F4FB7F89467
:1001B00030E0F901EE0FFF1FE20FF31FE75DFE4F86
:1001C000928381834FBF0895CF92DF92EF92FF9287
:1001D0001F93CF93DF93EC01162F7A016901888179
:1001E0008C3008F064C0862F61E00E94EB068881A5
:1001F00090E0FC01EE0FFF1FE80FF91FE75DFE4FD7
:100200001F738081807C812B808380E292E08E1935
:100210009F0964E070E00E94670A698380E699E0C4
:100220008C199D0964E070E00E94670A6A83A881C6
:100230008A2F6CE00E945B0A682F70E0AB01440FCC
:10024000551F460F571F440F551F440F551F20E0E1
:1002500030E0C901840F951FFC01EE0FFF1FE80F6E
:10026000F91FE75DFE4F808186FD15C02F5F3F4F70
:100270002C30310571F724C01092800082E0809309
:1002800081001092850010928400B19A80916F00D5
:10029000826080936F008A2F90E0FC01EE0FFF1FB9
:1002A000E80FF91FE75DFE4F8081806480838881BD
:1002B000DF91CF911F91FF90EF90DF90CF90089545
:1002C000672BD1F2E8CF40E252E020E639E00E940D
:1002D000E40008951F920F920FB60F9211242F93EE
:1002E0003F934F935F936F937F938F939F93AF93BE
:1002F000BF93EF93FF9380914D0187FF05C010924C
:100300008500109284002BC020914D01332727FDDA
:1003100030958091280190E02817390704F58091E5
:100320004D01992787FD9095FC01EE0FFF1FE80F07
:10033000F91FE75DFE4F808186FF11C080914D015E
:10034000992787FD9095FC01EE0FFF1FE80FF91F1D
:10035000E75DFE4F80818F7360E00E940B07809104
:100360004D018F5F80934D0120914D01332727FD73
:1003700030958091280190E0281739070CF04EC085
:1003800080914D018C300CF049C020918400309157
:10039000850080914D01992787FD9095FC01EE0F16
:1003A000FF1FE80FF91FE75DFE4F81819281280F43
:1003B000391F309389002093880080914D0199273F
:1003C00087FD9095FC01EE0FFF1FE80FF91FE75D19
:1003D000FE4F808186FF2AC080914D01992787FDBD
:1003E0009095FC01EE0FFF1FE80FF91FE75DFE4F30
:1003F00080818F7361E00E940B0718C080E49CE944
:1004000005C08091840090918500049690938900A6
:10041000809388008FEF80934D0108C08091840005
:100420009091850084549C4948F3EBCFFF91EF9164
:10043000BF91AF919F918F917F916F915F914F91FC
:100440003F912F910F900FBE0F901F9018958EE443
:1004500091E00E948D0008958091C5019091C601A0
:10046000019721F48091090161E003C080910901A5
:1004700060E00E940B0708951F93CF93DF93C3EAB8
:10048000D1E010E088819981019759F480910B01A6
:10049000810F61E00E940B0780910D01810F61E0E7
:1004A0000AC080910B01810F60E00E940B078091D0
:1004B0000D01810F60E00E940B0722961F5F133031
:1004C00009F7DF91CF911F9108958091AF0190912D
:1004D000B0010197D9F48091BB019091BC0127E054
:1004E000803D92079CF40A969093BC018093BB01D7
:1004F0008091170161E00E940B0762E370E080E0E9
:1005000090E00E948706809117011FC08091B10181
:100510009091B201019719F58091BB019091BC01B6
:1005200018161906E4F44E979093BC018093BB0112
:100530008091190161E00E940B0764E170E080E0A6
:1005400090E00E9487068091190160E00E940B07ED
:1005500062E370E080E090E00E9487060AC080912C
:10056000BB019091BC0197FF04C01092BC01109296
:10057000BB018091B3019091B401019761F4809126
:10058000BB019091BC01805D97402CF08EE491E01E
:1005900066EE75E004C08EE491E06AEF75E00E94BB
:1005A000A7000895CF92DF92FF920F931F93CF93EE
:1005B000DF93F82E062F142F862F61E00E94EB06A2
:1005C0008F2D61E00E94EB068F2D60E00E940B07EB
:1005D000802F60E00E940B07C7E0D0E0C12EDD2431
:1005E000802F60E00E940B07B6010C2E02C07595AB
:1005F00067950A94E2F761708F2D0E940B07802F98
:1006000061E00E940B078F2D60E00E940B0721978D
:100610008FEFCF3FD80721F7802F60E00E940B07B4
:10062000DF91CF911F910F91FF90DF90CF900895B0
:10063000AF92BF92CF92DF92EF92FF920F931F93F0
:10064000DF93CF93CDB7DEB7C054D0400FB6F89448
:10065000DEBF0FBECDBF80915301909154019A83AC
:10066000898380915501909156019C838B83809161
:100670005701909158019E838D83809159019091EB
:100680005A0198878F8380915B0190915C019A87D2
:10069000898780915D0190915E019C878B87EFE552
:1006A000F1E0AE014F5E5F4FDA01819191918D9340
:1006B0009D9381E0E137F807C1F7EFE8F1E0DE0153
:1006C0009396819191918D939D9381E0E939F807FB
:1006D000C1F78091BD019091BE019CAB8BAB809125
:1006E000BF019091C0019EAB8DAB18AE1FAA1AAE90
:1006F00019AE1CAE1BAE1EAE1DAEFE01FF961182E2
:100700001082FE013196AA24BB2420E030E061E093
:1007100070E080819181181619064CF4CB01022EED
:1007200002C0880F991F0A94E2F7A80EB91E2F5F26
:100730003F4F32962830310561F7CC24DD2420E08C
:1007400030E061E070E0FA018081918118161906AD
:100750004CF4CB01022E02C0880F991F0A94E2F7D5
:10076000C80ED91E2F5F3F4F4E5F5F4F28303105B7
:1007700051F7FE01B196EE24FF2420E030E041E085
:1007800050E080819181181619064CF4CA01022E9E
:1007900002C0880F991F0A94E2F7E80EF91E2F5F36
:1007A0003F4F32962830310561F7FE01F19600E0A7
:1007B00010E020E030E041E050E0808191811816A7
:1007C00019064CF4CA01022E02C0880F991F0A9420
:1007D000E2F7080F191F2F5F3F4F3296283031057F
:1007E00061F780910F0160E00E940B076091110199
:1007F000709112018091130190911401402F0E9479
:10080000D2026091110170911201809113019091B7
:1008100014014E2D0E94D2026091110170911201BB
:1008200080911301909114014C2D0E94D20260918D
:1008300011017091120180911301909114014A2DC0
:100840000E94D20280910F0161E00E940B0781E0BB
:1008500090E0C05CDF4F0FB6F894DEBF0FBECDBF97
:10086000CF91DF911F910F91FF90EF90DF90CF908C
:10087000BF90AF90089588E592E00E948E0888238B
:1008800009F493C188E592E00E94A208482F809164
:10089000C9019091CA01892B61F0842F8053823065
:1008A00040F01092CA011092C901109252011092A8
:1008B00051018091C9019091CA018130910561F582
:1008C0002091510130915201F901EE0FFF1FEF58B5
:1008D000FE4F842F992787FD9095C0979183808341
:1008E0002F5F3F4F30935201209351012F3031053C
:1008F0000CF44DC120E030E0F901ED5AFE4FD90172
:10090000AF58BE4F8D919C91918380832E5F3F4F56
:100910002E31310589F746C08230910509F045C076
:100920002091510130915201F901EE0FFF1FE7565E
:10093000FE4F842F992787FD9095C09791838083E0
:100940002F5F3F4F309352012093510125303105E5
:100950000CF41DC18091990190919A01909390019E
:1009600080938F0180919B0190919C0190939201C3
:100970008093910180919D0190919E0190939401AB
:100980008093930180919F019091A0019093960193
:10099000809395018091A1019091A201909398017B
:1009A000809397010E941803EEC083309105A9F54A
:1009B0002091510130915201F901EE0FFF1FE755CF
:1009C000FE4F842F992787FD9095C0979183808350
:1009D0002F5F3F4F30935201209351012330310557
:1009E0000CF4D5C08091A9019091AA019093A40123
:1009F0008093A3018091AB019091AC019093A601EB
:100A00008093A5018091AD019091AE019093A801D2
:100A10008093A7010E943C02B6C08430910599F5ED
:100A20002091510130915201F901EE0FFF1FEB545B
:100A3000FE4F842F992787FD9095C09791838083DF
:100A40002F5F3F4F309352012093510123303105E6
:100A50000CF49DC08091B5019091B6019093B001C6
:100A60008093AF018091B7019091B8019093B2014A
:100A70008093B1018091B9019091BA019093B40132
:100A80008093B3018FCF8530910559F520915101A5
:100A900030915201F901EE0FFF1FEF53FE4F842FEB
:100AA000992787FD9095C097918380832F5F3F4F53
:100AB0003093520120935101223031050CF467C06C
:100AC0008091C1019091C2019093BE018093BD01BC
:100AD0008091C3019091C4019093C0018093BF01A4
:100AE00061CF069721F52091510130915201F90112
:100AF000EE0FFF1FE953FE4F842F992787FD909536
:100B0000C097918380832F5F3F4F30935201209392
:100B1000510112161306DCF58091C7019091C801AE
:100B20009093C6018093C5010E942C022CC04D36C3
:100B3000C9F04E363CF44536C1F04C3651F04236E1
:100B400011F525C04437A1F0463731F04337D9F4C9
:100B500006C081E090E00EC082E090E00BC083E030
:100B600090E008C084E090E005C085E090E002C01D
:100B700086E090E09093CA018093C90110925201DF
:100B80001092510104C01092CA011092C90188E567
:100B900092E060E071E00E944E096091C90170919D
:100BA000CA0188E592E00E942C0A0E94650208951D
:100BB0001F9360911B0170911C018EE491E00E94D3
:100BC00063018EE491E06AEF75E00E94A70010E0F7
:100BD000812F61E00E94EB06812F60E00E940B07ED
:100BE0001F5F1131A9F788E592E040E855E260E027
:100BF00070E00E9495078091150161E00E940B074B
:100C000080910F0160E00E940B07609111017091CB
:100C10001201809113019091140140E00E94D202D0
:100C20006091110170911201809113019091140152
:100C300040E00E94D20260911101709112018091F6
:100C400013019091140140E00E94D20260911101C1
:100C500070911201809113019091140140E00E9463
:100C6000D20280910F0161E00E940B071F9108954D
:100C70000E94B1060E94D8050E943B04FDCF1F923E
:100C80000F920FB60F9211242F933F938F939F9340
:100C9000AF93BF938091CF019091D001A091D101EA
:100CA000B091D2013091D3010196A11DB11D232F26
:100CB0002D5F2D3720F02D570196A11DB11D2093DA
:100CC000D3018093CF019093D001A093D101B09331
:100CD000D2018091CB019091CC01A091CD01B09136
:100CE000CE010196A11DB11D8093CB019093CC0143
:100CF000A093CD01B093CE01BF91AF919F918F9101
:100D00003F912F910F900FBE0F901F901895EF926B
:100D1000FF920F931F937B018C018FB7F894409142
:100D2000CF015091D0016091D1017091D2018FBF5C
:100D30002FB7F8948091CF019091D001A091D1016B
:100D4000B091D2012FBF841B950BA60BB70BE816F1
:100D5000F9060A071B0760F71F910F91FF90EF90AC
:100D60000895789484B5826084BD84B5816084BD23
:100D700085B5826085BD85B5816085BDEEE6F0E014
:100D8000808181608083E1E8F0E0808182608083FF
:100D9000808181608083E0E8F0E0808181608083F1
:100DA000E1EBF0E0808184608083E0EBF0E0808123
:100DB00081608083EAE7F0E08081846080838081C5
:100DC000826080838081816080838081806880836D
:100DD0001092C1000895282F30E0C90186569F4F18
:100DE000FC0194912A573F4FF9018491882391F097
:100DF000E82FF0E0EE0FFF1FE859FF4FA591B491E7
:100E0000662329F48C91909589238C9308958C9175
:100E1000892B8C930895482F50E0CA0182559F4F2B
:100E2000FC012491CA0186569F4FFC0194914A57B8
:100E30005F4FFA0134913323D1F1222331F1233072
:100E400021F4809180008F7705C0243031F48091A7
:100E500080008F7D8093800018C0213019F484B504
:100E60008F7704C0223021F484B58F7D84BD0DC0FE
:100E7000263021F48091B0008F7705C0273029F407
:100E80008091B0008F7D8093B000E32FF0E0EE0FF3
:100E9000FF1FEE58FF4FA591B491662329F48C9162
:100EA000909589238C9308958C91892B8C93089528
:100EB0001F920F920FB60F9211242F933F934F93CF
:100EC0005F936F937F938F939F93AF93BF93EF93B2
:100ED000FF934091C600E0915402F0915502CF017A
:100EE000019660E870E00E94670A9C0180915602BA
:100EF000909157022817390739F0EC52FE4F408382
:100F00003093550220935402FF91EF91BF91AF911E
:100F10009F918F917F916F915F914F913F912F9111
:100F20000F900FBE0F901F9018955F926F927F9257
:100F30008F929F92AF92BF92CF92DF92EF92FF92E9
:100F40000F931F93CF93DF93EC013A014B01413490
:100F500082E458078FE0680780E078070CF07FC0D4
:100F600060E874E88EE190E0A40193010E949C0A7D
:100F70002150304040405040CA01B90122E030E0E9
:100F800040E050E00E949C0A59016A01A6019501C7
:100F9000209530954095509594E0220F331F441FC3
:100FA000551F9A95D1F760E074E284EF90E00E94BB
:100FB0009C0ACA01B9012FEF30E040E050E00E94E6
:100FC0003C0AA40193010E949C0AC90181509F4FD1
:100FD000181619061CF4522E5A9403C05524539423
:100FE000521A60E079E08DE390E0A40193010E9441
:100FF0009C0A2150304040405040CA01B90122E0D3
:1010000030E040E050E00E949C0A209530954095E9
:10101000509583E0220F331F441F551F8A95D1F747
:1010200060E074E284EF90E00E949C0ACA01B9017A
:101030002FEF30E040E050E00E943C0AA401930111
:101040000E949C0AC90181509F4F181619061CF472
:10105000822F815002C081E0821B851500F5E88552
:10106000F98581E090E00A8802C0880F991F0A94F0
:10107000E2F7808360E079E08DE390E0A4019301E2
:101080000E949C0A2150304040405040CA01B901A2
:1010900022E030E040E050E00E949C0A04C0E88575
:1010A000F98510829501EC81FD813083EE81FF810D
:1010B0002083EA85FB85208141E050E0CA010E844F
:1010C00002C0880F991F0A94E2F7282B2083EA8533
:1010D000FB852081CA010F8402C0880F991F0A94E2
:1010E000E2F7282B2083EA85FB858081088802C0EF
:1010F000440F551F0A94E2F7842B8083DF91CF9130
:101100001F910F91FF90EF90DF90CF90BF90AF9025
:101110009F908F907F906F905F900895DC01129662
:10112000ED91FC911397E058FF4F81919191805878
:101130009F4F20813181821B930B60E870E00E94F9
:10114000670A0895CF93DF93DC011296ED91FC912D
:101150001397EF01CE57DF4F48815981E058FF4F79
:1011600080819181E058F0408417950719F42FEFA2
:101170003FEF0CC0E40FF51F2081CA01019660E823
:1011800070E00E94670A9983888330E0C901DF918B
:10119000CF910895FC01A085B18521898C9190E0C3
:1011A000022E02C0959587950A94E2F780FFF6CF4C
:1011B0000484F585E02D6083089581E291E09093A9
:1011C00059028093580284ED91E090935B028093E2
:1011D0005A0285EC90E090935D0280935C0284EC6F
:1011E00090E090935F0280935E0280EC90E0909399
:1011F00061028093600281EC90E09093630280939F
:10120000620286EC90E0909365028093640284E031
:101210008093660283E08093670287E08093680290
:1012200085E08093690281E080936A0208950F93BC
:101230001F93CF93DF938C01EB0109C02196D80156
:10124000ED91FC910190F081E02DC8010995688134
:101250006623A1F7DF91CF911F910F910895EF922F
:10126000FF920F931F93CF93DF938C017B01EA01D1
:101270000CC0D7016D917D01D801ED91FC910190D9
:10128000F081E02DC80109952197209791F7DF9112
:10129000CF911F910F91FF90EF900895DC01ED9198
:1012A000FC910280F381E02D099508950F931F931F
:1012B0008C01DC01ED91FC910190F081E02D6DE05D
:1012C0000995D801ED91FC910190F081E02DC801C4
:1012D0006AE009951F910F9108952F923F924F92C6
:1012E0005F926F927F928F929F92AF92BF92CF92B6
:1012F000DF92EF92FF920F931F93DF93CF93CDB7BF
:10130000DEB7A0970FB6F894DEBF0FBECDBF1C01AD
:101310006A017B01411551056105710549F4DC0144
:10132000ED91FC910190F081E02D60E3099554C0AE
:10133000882499245401422E55246624772401E000
:1013400010E00C0F1D1F080D191DC701B601A301E8
:1013500092010E947A0AF80160830894811C911C12
:10136000A11CB11CC701B601A30192010E947A0A17
:10137000C901DA016C017D01C114D104E104F10459
:10138000F1F681E0E82EF12CEC0EFD1EE80CF91CC4
:101390003E010894611C711CD501C4010197A1098B
:1013A000B1096C01C818D90814C0F601EE0DFF1D73
:1013B00060816A3010F4605D01C0695CD101ED911B
:1013C000FC910190F081E02DC10109950894E1089C
:1013D000F1086E147F0449F7A0960FB6F894DEBFAB
:1013E0000FBECDBFCF91DF911F910F91FF90EF9076
:1013F000DF90CF90BF90AF909F908F907F906F9035
:101400005F904F903F902F900895EF92FF920F932F
:101410001F93CF93DF93EC017A018B0177FF0FC00D
:10142000E881F9810190F081E02D6DE20995109538
:101430000095F094E094E11CF11C011D111DCE01FA
:10144000B801A7012AE00E946D09DF91CF911F9199
:101450000F91FF90EF9008950F931F938C01AB01B4
:10146000662757FD6095762F0E94050AC8010E94E5
:1014700056091F910F910895629FD001739FF0014B
:10148000829FE00DF11D649FE00DF11D929FF00D14
:10149000839FF00D749FF00D659FF00D9927729F4B
:1014A000B00DE11DF91F639FB00DE11DF91FBD01D6
:1014B000CF0111240895991B79E004C0991F961754
:1014C00008F0961B881F7A95C9F78095089597FBB9
:1014D000092E07260AD077FD04D049D006D0002077
:1014E0001AF4709561957F4F0895F6F79095819560
:1014F0009F4F0895A1E21A2EAA1BBB1BFD010DC030
:10150000AA1FBB1FEE1FFF1FA217B307E407F507B3
:1015100020F0A21BB30BE40BF50B661F771F881F8F
:10152000991F1A9469F760957095809590959B0125
:10153000AC01BD01CF01089597FB092E05260ED001
:1015400057FD04D0D7DF0AD0001C38F450954095E1
:10155000309521953F4F4F4F5F4F0895F6F7909587
:101560008095709561957F4F8F4F9F4F0895AA1B6F
:10157000BB1B51E107C0AA1FBB1FA617B70710F07E
:10158000A61BB70B881F991F5A95A9F780959095B0
:10159000BC01CD010895EE0FFF1F0590F491E02DE1
:0615A0000994F894FFCF4E
:1015A6006D6F646520697320000800020005000A5B
:1015B600000C000B000D000E000F001000000000D4
:0815C60000CA0817092F0900F3
:00000001FF
