:100000000C9463000C948B000C948B000C948B006C
:100010000C948B000C948B000C948B000C948B0034
:100020000C948B000C948B000C948B000C946A0144
:100030000C948B000C948B000C948B000C948B0014
:100040000C9480060C948B000C9499070C948B00F4
:100050000C948B000C948B000C948B000C948B00F4
:100060000C948B000C948B000000000024002700EF
:100070002A0000000000250028002B0000000000DE
:1000800023002600290004040404040404040202DA
:100090000202020203030303030301020408102007
:1000A0004080010204081020010204081020000012
:1000B0000007000201000003040600000000000029
:1000C000000027021E0911241FBECFEFD8E0DEBFBB
:1000D000CDBF11E0A0E0B1E0E8E2F6E102C005909A
:1000E0000D92AA32B107D9F712E0AAE2B1E001C03D
:1000F0001D92A137B107E1F710E0C6ECD0E004C0D3
:100100002297FE010E940E0BC23CD107C9F70E9444
:1001100079060C94120B0C940000FC0180912A01CA
:100120008C3090F480838F5F80932A01815090E01F
:10013000FC01EE0FFF1FE80FF91FE55DFE4F88EB96
:100140009BE09283818308958FEF80830895FC0163
:1001500020812C30C0F58181992787FD909548E852
:1001600050E0481B590B440F551F440F551F64178F
:10017000750784F08281992787FD909548E552E0C4
:10018000481B590B440F551F440F551F6417750723
:100190000CF4AB01CA01AA2797FDA095BA2F0697C8
:1001A000A109B109880F991FAA1FBB1F4FB7F89467
:1001B00030E0F901EE0FFF1FE20FF31FE55DFE4F88
:1001C000928381834FBF0895CF92DF92EF92FF9287
:1001D0001F93CF93DF93EC01162F7A016901888179
:1001E0008C3008F064C0862F61E00E942C07888163
:1001F00090E0FC01EE0FFF1FE80FF91FE55DFE4FD9
:100200001F738081807C812B808380E292E08E1935
:100210009F0964E070E00E94A80A698380E699E083
:100220008C199D0964E070E00E94A80A6A83A88185
:100230008A2F6CE00E949C0A682F70E0AB01440F8B
:10024000551F460F571F440F551F440F551F20E0E1
:1002500030E0C901840F951FFC01EE0FFF1FE80F6E
:10026000F91FE55DFE4F808186FD15C02F5F3F4F72
:100270002C30310571F724C01092800082E0809309
:1002800081001092850010928400B19A80916F00D5
:10029000826080936F008A2F90E0FC01EE0FFF1FB9
:1002A000E80FF91FE55DFE4F8081806480838881BF
:1002B000DF91CF911F91FF90EF90DF90CF90089545
:1002C000672BD1F2E8CF40E252E020E639E00E940D
:1002D000E40008951F920F920FB60F9211242F93EE
:1002E0003F934F935F936F937F938F939F93AF93BE
:1002F000BF93EF93FF9380914F0187FF05C010924A
:100300008500109284002BC020914F01332727FDD8
:10031000309580912A0190E02817390704F58091E3
:100320004F01992787FD9095FC01EE0FFF1FE80F05
:10033000F91FE55DFE4F808186FF11C080914F015E
:10034000992787FD9095FC01EE0FFF1FE80FF91F1D
:10035000E55DFE4F80818F7360E00E944C078091C5
:100360004F018F5F80934F0120914F01332727FD6D
:10037000309580912A0190E0281739070CF04EC083
:1003800080914F018C300CF049C020918400309155
:10039000850080914F01992787FD9095FC01EE0F14
:1003A000FF1FE80FF91FE55DFE4F81819281280F45
:1003B000391F309389002093880080914F0199273D
:1003C00087FD9095FC01EE0FFF1FE80FF91FE55D1B
:1003D000FE4F808186FF2AC080914F01992787FDBB
:1003E0009095FC01EE0FFF1FE80FF91FE55DFE4F32
:1003F00080818F7361E00E944C0718C080E49CE903
:1004000005C08091840090918500049690938900A6
:10041000809388008FEF80934F0108C08091840003
:100420009091850084549C4948F3EBCFFF91EF9164
:10043000BF91AF919F918F917F916F915F914F91FC
:100440003F912F910F900FBE0F901F90189580E550
:1004500091E00E948D0008958091CB019091CC0194
:10046000019721F480911D0161E003C080911D017D
:1004700060E00E944C0708958091C7019091C801E7
:10048000019721F48091090161E003C08091090185
:1004900060E00E944C0708951F93CF93DF93C5EA55
:1004A000D1E010E088819981019759F480910B0186
:1004B000810F61E00E944C0780910D01810F61E086
:1004C0000AC080910B01810F60E00E944C0780916F
:1004D0000D01810F60E00E944C0722961F5F1330D0
:1004E00009F7DF91CF911F9108958091B10190910B
:1004F000B2010197D9F48091BD019091BE0127E02E
:10050000803D92079CF444969093BE018093BD0178
:100510008091170161E00E944C0769E170E080E082
:1005200090E00E94C806809117011FC08091B3011E
:100530009091B401019719F58091BD019091BE0190
:1005400018161906E4F488979093BE018093BD01B4
:100550008091190161E00E944C0760E170E080E049
:1005600090E00E94C8068091190160E00E944C074B
:1005700062E370E080E090E00E94C8060AC08091CB
:10058000BD019091BE0197FF04C01092BE01109270
:10059000BD018091B5019091B601019761F4809100
:1005A000BD019091BE01805D97402CF080E591E007
:1005B00066EE75E004C080E591E06AEF75E00E94A8
:1005C000A7000895CF92DF92FF920F931F93CF93CE
:1005D000DF93F82E062F142F862F61E00E942C0740
:1005E0008F2D61E00E942C078F2D60E00E944C0748
:1005F000802F60E00E944C07C7E0D0E0C12EDD24D0
:10060000802F60E00E944C07B6010C2E02C0759549
:1006100067950A94E2F761708F2D0E944C07802F36
:1006200061E00E944C078F2D60E00E944C072197EB
:100630008FEFCF3FD80721F7802F60E00E944C0753
:10064000DF91CF911F910F91FF90DF90CF90089590
:10065000AF92BF92CF92DF92EF92FF920F931F93D0
:10066000DF93CF93CDB7DEB7C054D0400FB6F89428
:10067000DEBF0FBECDBF80915501909156019A8388
:10068000898380915701909158019C838B8380913D
:10069000590190915A019E838D8380915B019091C5
:1006A0005C0198878F8380915D0190915E019A87AC
:1006B000898780915F01909160019C878B87E1E63B
:1006C000F1E0AE014F5E5F4FDA01819191918D9320
:1006D0009D9381E0E337F807C1F7E1E9F1E0DE013E
:1006E0009396819191918D939D9381E0EB39F807D9
:1006F000C1F78091BF019091C0019CAB8BAB809101
:10070000C1019091C2019EAB8DAB18AE1FAA1AAE6B
:1007100019AE1CAE1BAE1EAE1DAEFE01FF961182C1
:100720001082FE013196AA24BB2420E030E061E073
:1007300070E080819181181619064CF4CB01022ECD
:1007400002C0880F991F0A94E2F7A80EB91E2F5F06
:100750003F4F32962830310561F7CC24DD2420E06C
:1007600030E061E070E0FA0180819181181619068D
:100770004CF4CB01022E02C0880F991F0A94E2F7B5
:10078000C80ED91E2F5F3F4F4E5F5F4F2830310597
:1007900051F7FE01B196EE24FF2420E030E041E065
:1007A00050E080819181181619064CF4CA01022E7E
:1007B00002C0880F991F0A94E2F7E80EF91E2F5F16
:1007C0003F4F32962830310561F7FE01F19600E087
:1007D00010E020E030E041E050E080819181181687
:1007E00019064CF4CA01022E02C0880F991F0A9400
:1007F000E2F7080F191F2F5F3F4F3296283031055F
:1008000061F780910F0160E00E944C076091110137
:10081000709112018091130190911401402F0E9458
:10082000E202609111017091120180911301909187
:1008300014014E2D0E94E20260911101709112018B
:1008400080911301909114014C2D0E94E20260915D
:1008500011017091120180911301909114014A2DA0
:100860000E94E20280910F0161E00E944C0781E04A
:1008700090E0C05CDF4F0FB6F894DEBF0FBECDBF77
:10088000CF91DF911F910F91FF90EF90DF90CF906C
:10089000BF90AF9008958EE592E00E94CF08882324
:1008A00009F4C4C18EE592E00E94E308482F8091CC
:1008B000CF019091D001892B61F0842F8053823039
:1008C00040F01092D0011092CF011092540110927A
:1008D00053018091CF019091D0018130910561F554
:1008E0002091530130915401F901EE0FFF1FED5893
:1008F000FE4F842F992787FD9095C0979183808321
:100900002F5F3F4F30935401209353012F30310517
:100910000CF47EC120E030E0F901EB5AFE4FD90122
:10092000AD58BE4F8D919C91918380832E5F3F4F38
:100930002E31310589F746C08230910509F045C056
:100940002091530130915401F901EE0FFF1FE5563C
:10095000FE4F842F992787FD9095C09791838083C0
:100960002F5F3F4F309354012093530125303105C1
:100970000CF44EC180919B0190919C019093920147
:100980008093910180919D0190919E01909394019B
:100990008093930180919F019091A0019093960183
:1009A000809395018091A1019091A201909398016B
:1009B000809397018091A3019091A40190939A0153
:1009C000809399010E9428031FC183309105A9F5E6
:1009D0002091530130915401F901EE0FFF1FE555AD
:1009E000FE4F842F992787FD9095C0979183808330
:1009F0002F5F3F4F30935401209353012330310533
:100A00000CF406C18091AB019091AC019093A601CA
:100A10008093A5018091AD019091AE019093A801C2
:100A20008093A7018091AF019091B0019093AA01AA
:100A30008093A9010E944C02E7C08430910599F58A
:100A40002091530130915401F901EE0FFF1FE95439
:100A5000FE4F842F992787FD9095C09791838083BF
:100A60002F5F3F4F309354012093530123303105C2
:100A70000CF4CEC08091B7019091B8019093B2016F
:100A80008093B1018091B9019091BA019093B40122
:100A90008093B3018091BB019091BC019093B6010A
:100AA0008093B5018FCF8530910559F52091530181
:100AB00030915401F901EE0FFF1FED53FE4F842FCB
:100AC000992787FD9095C097918380832F5F3F4F33
:100AD0003093540120935301223031050CF498C017
:100AE0008091C3019091C4019093C0018093BF0194
:100AF0008091C5019091C6019093C2018093C1017C
:100B000061CF8630910529F5209153013091540130
:100B1000F901EE0FFF1FE753FE4F842F992787FD42
:100B20009095C097918380832F5F3F4F30935401FE
:100B300020935301121613060CF06AC08091C9016C
:100B40009091CA019093C8018093C7010E943C0212
:100B50005BC0079729F52091530130915401F901A9
:100B6000EE0FFF1FE353FE4F842F992787FD9095CB
:100B7000C097918380832F5F3F4F30935401209320
:100B80005301121613060CF043C08091CD019091D1
:100B9000CE019093CC018093CB010E942C0234C0F3
:100BA0004C36A9F04D363CF44536E9F0463609F1AD
:100BB000423651F52DC0433781F044371CF44D3691
:100BC00019F50EC0443791F04637F1F403C081E0C7
:100BD00090E011C082E090E00EC083E090E00BC096
:100BE00084E090E008C085E090E005C086E090E0F9
:100BF00002C087E090E09093D0018093CF011092E3
:100C000054011092530104C01092D0011092CF01F0
:100C10008EE592E060E071E00E948F096091CF0163
:100C20007091D0018EE592E00E946D0A0E947502DB
:100C300008951F9360911B0170911C0180E591E064
:100C40000E94630180E591E06AEF75E00E94A700D1
:100C500010E0812F61E00E942C07812F60E00E944C
:100C60004C071F5F1131A9F78EE592E040E855E28D
:100C700060E070E00E94D6078091150161E00E945B
:100C80004C0780910F0160E00E944C0760911101B8
:100C900070911201809113019091140140E00E9423
:100CA000E202609111017091120180911301909103
:100CB000140140E00E94E202609111017091120162
:100CC000809113019091140140E00E94E202609132
:100CD000110170911201809113019091140140E073
:100CE0000E94E20280910F0161E00E944C071F9177
:100CF00008950E94F2060E9419060E944B04FDCF3F
:100D00001F920F920FB60F9211242F933F938F9340
:100D10009F93AF93BF938091D5019091D601A091FD
:100D2000D701B091D8013091D9010196A11DB11D13
:100D3000232F2D5F2D3720F02D570196A11DB11DBA
:100D40002093D9018093D5019093D601A093D70128
:100D5000B093D8018091D1019091D201A091D3019B
:100D6000B091D4010196A11DB11D8093D101909342
:100D7000D201A093D301B093D401BF91AF919F91C1
:100D80008F913F912F910F900FBE0F901F9018954C
:100D9000EF92FF920F931F937B018C018FB7F89412
:100DA0004091D5015091D6016091D7017091D80141
:100DB0008FBF2FB7F8948091D5019091D601A09163
:100DC000D701B091D8012FBF841B950BA60BB70B91
:100DD000E816F9060A071B0760F71F910F91FF90AD
:100DE000EF900895789484B5826084BD84B5816065
:100DF00084BD85B5826085BD85B5816085BDEEE623
:100E0000F0E0808181608083E1E8F0E080818260B1
:100E10008083808181608083E0E8F0E08081816070
:100E20008083E1EBF0E0808184608083E0EBF0E0A0
:100E3000808181608083EAE7F0E080818460808344
:100E400080818260808380818160808380818068EE
:100E500080831092C1000895282F30E0C901865682
:100E60009F4FFC0194912A573F4FF90184918823A9
:100E700091F0E82FF0E0EE0FFF1FE859FF4FA5912A
:100E8000B491662329F48C91909589238C930895CD
:100E90008C91892B8C930895482F50E0CA0182557C
:100EA0009F4FFC012491CA0186569F4FFC019491EB
:100EB0004A575F4FFA0134913323D1F1222331F1A4
:100EC000233021F4809180008F7705C0243031F4E5
:100ED000809180008F7D8093800018C0213019F4AC
:100EE00084B58F7704C0223021F484B58F7D84BD12
:100EF0000DC0263021F48091B0008F7705C02730D7
:100F000029F48091B0008F7D8093B000E32FF0E052
:100F1000EE0FFF1FEE58FF4FA591B491662329F401
:100F20008C91909589238C9308958C91892B8C9327
:100F300008951F920F920FB60F9211242F933F9393
:100F40004F935F936F937F938F939F93AF93BF93D1
:100F5000EF93FF934091C600E0915A02F0915B023B
:100F6000CF01019660E870E00E94A80A9C01809180
:100F70005C0290915D022817390739F0E652FE4F66
:100F8000408330935B0220935A02FF91EF91BF910F
:100F9000AF919F918F917F916F915F914F913F9111
:100FA0002F910F900FBE0F901F9018955F926F9228
:100FB0007F928F929F92AF92BF92CF92DF92EF92E9
:100FC000FF920F931F93CF93DF93EC013A014B01F4
:100FD000413482E458078FE0680780E078070CF01E
:100FE0007FC060E874E88EE190E0A40193010E9464
:100FF000DD0A2150304040405040CA01B90122E092
:1010000030E040E050E00E94DD0A59016A01A6018B
:101010009501209530954095509594E0220F331F0F
:10102000441F551F9A95D1F760E074E284EF90E079
:101030000E94DD0ACA01B9012FEF30E040E050E024
:101040000E947D0AA40193010E94DD0AC90181501A
:101050009F4F181619061CF4522E5A9403C055249B
:101060005394521A60E079E08DE390E0A40193017B
:101070000E94DD0A2150304040405040CA01B90171
:1010800022E030E040E050E00E94DD0A20953095FB
:101090004095509583E0220F331F441F551F8A95BA
:1010A000D1F760E074E284EF90E00E94DD0ACA01AB
:1010B000B9012FEF30E040E050E00E947D0AA4012A
:1010C00093010E94DD0AC90181509F4F181619062D
:1010D0001CF4822F815002C081E0821B851500F52F
:1010E000E885F98581E090E00A8802C0880F991FA1
:1010F0000A94E2F7808360E079E08DE390E0A40158
:1011000093010E94DD0A2150304040405040CA0106
:10111000B90122E030E040E050E00E94DD0A04C066
:10112000E885F98510829501EC81FD813083EE819F
:10113000FF812083EA85FB85208141E050E0CA01E0
:101140000E8402C0880F991F0A94E2F7282B20838F
:10115000EA85FB852081CA010F8402C0880F991F90
:101160000A94E2F7282B2083EA85FB858081088892
:1011700002C0440F551F0A94E2F7842B8083DF914D
:10118000CF911F910F91FF90EF90DF90CF90BF9084
:10119000AF909F908F907F906F905F900895DC014B
:1011A0001296ED91FC911397E058FF4F8191919128
:1011B00080589F4F20813181821B930B60E870E043
:1011C0000E94A80A0895CF93DF93DC011296ED9157
:1011D000FC911397EF01CE57DF4F48815981E058BA
:1011E000FF4F80819181E058F0408417950719F4F2
:1011F0002FEF3FEF0CC0E40FF51F2081CA010196CD
:1012000060E870E00E94A80A9983888330E0C901F1
:10121000DF91CF910895FC01A085B18521898C9142
:1012200090E0022E02C0959587950A94E2F780FF20
:10123000F6CF0484F585E02D6083089583E291E084
:1012400090935F0280935E028AED91E09093610239
:101250008093600285EC90E0909363028093620239
:1012600084EC90E0909365028093640280EC90E0BF
:10127000909367028093660281EC90E090936902FC
:101280008093680286EC90E090936B0280936A02F0
:1012900084E080936C0283E080936D0287E080930A
:1012A0006E0285E080936F0281E080937002089562
:1012B0000F931F93CF93DF938C01EB0109C021960D
:1012C000D801ED91FC910190F081E02DC8010995C4
:1012D00068816623A1F7DF91CF911F910F91089547
:1012E000EF92FF920F931F93CF93DF938C017B01BB
:1012F000EA010CC0D7016D917D01D801ED91FC91FF
:101300000190F081E02DC80109952197209791F770
:10131000DF91CF911F910F91FF90EF900895DC0125
:10132000ED91FC910280F381E02D099508950F93D2
:101330001F938C01DC01ED91FC910190F081E02D77
:101340006DE00995D801ED91FC910190F081E02DBF
:10135000C8016AE009951F910F9108952F923F925D
:101360004F925F926F927F928F929F92AF92BF92B5
:10137000CF92DF92EF92FF920F931F93DF93CF9361
:10138000CDB7DEB7A0970FB6F894DEBF0FBECDBFC6
:101390001C016A017B01411551056105710549F484
:1013A000DC01ED91FC910190F081E02D60E3099565
:1013B00054C0882499245401422E5524662477244D
:1013C00001E010E00C0F1D1F080D191DC701B6012B
:1013D000A30192010E94BB0AF80160830894811C5A
:1013E000911CA11CB11CC701B601A30192010E946E
:1013F000BB0AC901DA016C017D01C114D104E10409
:10140000F104F1F681E0E82EF12CEC0EFD1EE80C63
:10141000F91C3E010894611C711CD501C40101979F
:10142000A109B1096C01C818D90814C0F601EE0D64
:10143000FF1D60816A3010F4605D01C0695CD101FC
:10144000ED91FC910190F081E02DC1010995089486
:10145000E108F1086E147F0449F7A0960FB6F894DE
:10146000DEBF0FBECDBFCF91DF911F910F91FF90D7
:10147000EF90DF90CF90BF90AF909F908F907F9034
:101480006F905F904F903F902F900895EF92FF9252
:101490000F931F93CF93DF93EC017A018B0177FFBA
:1014A0000FC0E881F9810190F081E02D6DE209958E
:1014B00010950095F094E094E11CF11C011D111DA4
:1014C000CE01B801A7012AE00E94AE09DF91CF91B9
:1014D0001F910F91FF90EF9008950F931F938C0130
:1014E000AB01662757FD6095762F0E94460AC8011A
:1014F0000E9497091F910F910895629FD001739FD9
:10150000F001829FE00DF11D649FE00DF11D929F9F
:10151000F00D839FF00D749FF00D659FF00D9927DE
:10152000729FB00DE11DF91F639FB00DE11DF91F02
:10153000BD01CF0111240895991B79E004C0991FC2
:10154000961708F0961B881F7A95C9F7809508951D
:1015500097FB092E07260AD077FD04D049D006D084
:1015600000201AF4709561957F4F0895F6F79095D5
:1015700081959F4F0895A1E21A2EAA1BBB1BFD0166
:101580000DC0AA1FBB1FEE1FFF1FA217B307E40762
:10159000F50720F0A21BB30BE40BF50B661F771FBA
:1015A000881F991F1A9469F760957095809590959A
:1015B0009B01AC01BD01CF01089597FB092E0526C3
:1015C0000ED057FD04D0D7DF0AD0001C38F4509558
:1015D0004095309521953F4F4F4F5F4F0895F6F757
:1015E00090958095709561957F4F8F4F9F4F08958F
:1015F000AA1BBB1B51E107C0AA1FBB1FA617B70739
:1016000010F0A61BB70B881F991F5A95A9F7809554
:101610009095BC01CD010895EE0FFF1F0590F49148
:08162000E02D0994F894FFCFBE
:101628006D6F646520697320000800020005000AD8
:10163800000C000B000D000E000F00100009000048
:0A1648000000000B095809700900AA
:00000001FF
