:100000000C9463000C948B000C948B000C948B006C
:100010000C948B000C948B000C948B000C948B0034
:100020000C948B000C948B000C948B000C946A0144
:100030000C948B000C948B000C948B000C948B0014
:100040000C94AE020C948B000C94C7030C948B00A0
:100050000C948B000C948B000C948B000C948B00F4
:100060000C948B000C948B000000000024002700EF
:100070002A0000000000250028002B0000000000DE
:1000800023002600290004040404040404040202DA
:100090000202020203030303030301020408102007
:1000A0004080010204081020010204081020000012
:1000B0000007000201000003040600000000000029
:1000C000000027024C0511241FBECFEFD8E0DEBF91
:1000D000CDBF11E0A0E0B1E0E8EAFCE002C005908D
:1000E0000D92A031B107D9F711E0A0E1B1E001C054
:1000F0001D92A03EB107E1F710E0C6ECD0E004C0CD
:100100002297FE010E944E06C23CD107C9F70E9409
:10011000A7020C9452060C940000FC01809110017F
:100120008C3090F480838F5F80931001815090E039
:10013000FC01EE0FFF1FE80FF91FEF5EFE4F88EB8B
:100140009BE09283818308958FEF80830895FC0163
:1001500020812C30C0F58181992787FD909548E852
:1001600050E0481B590B440F551F440F551F64178F
:10017000750784F08281992787FD909548E552E0C4
:10018000481B590B440F551F440F551F6417750723
:100190000CF4AB01CA01AA2797FDA095BA2F0697C8
:1001A000A109B109880F991FAA1FBB1F4FB7F89467
:1001B00030E0F901EE0FFF1FE20FF31FEF5EFE4F7D
:1001C000928381834FBF0895CF92DF92EF92FF9287
:1001D0001F93CF93DF93EC01162F7A016901888179
:1001E0008C3008F064C0862F61E00E945A03888139
:1001F00090E0FC01EE0FFF1FE80FF91FEF5EFE4FCE
:100200001F738081807C812B808380E292E08E1935
:100210009F0964E070E00E94E805698380E699E048
:100220008C199D0964E070E00E94E8056A83A8814A
:100230008A2F6CE00E94DC05682F70E0AB01440F50
:10024000551F460F571F440F551F440F551F20E0E1
:1002500030E0C901840F951FFC01EE0FFF1FE80F6E
:10026000F91FEF5EFE4F808186FD15C02F5F3F4F67
:100270002C30310571F724C01092800082E0809309
:1002800081001092850010928400B19A80916F00D5
:10029000826080936F008A2F90E0FC01EE0FFF1FB9
:1002A000E80FF91FEF5EFE4F8081806480838881B4
:1002B000DF91CF911F91FF90EF90DF90CF90089545
:1002C000672BD1F2E8CF40E252E020E639E00E940D
:1002D000E40008951F920F920FB60F9211242F93EE
:1002E0003F934F935F936F937F938F939F93AF93BE
:1002F000BF93EF93FF938091350187FF05C0109264
:100300008500109284002BC020913501332727FDF2
:1003100030958091100190E02817390704F58091FD
:100320003501992787FD9095FC01EE0FFF1FE80F1F
:10033000F91FEF5EFE4F808186FF11C0809135016D
:10034000992787FD9095FC01EE0FFF1FE80FF91F1D
:10035000EF5EFE4F80818F7360E00E947A03809190
:1003600035018F5F8093350120913501332727FDBB
:1003700030958091100190E0281739070CF04EC09D
:10038000809135018C300CF049C02091840030916F
:10039000850080913501992787FD9095FC01EE0F2E
:1003A000FF1FE80FF91FEF5EFE4F81819281280F3A
:1003B000391F309389002093880080913501992757
:1003C00087FD9095FC01EE0FFF1FE80FF91FEF5E10
:1003D000FE4F808186FF2AC080913501992787FDD5
:1003E0009095FC01EE0FFF1FE80FF91FEF5EFE4F27
:1003F00080818F7361E00E947A0318C080E49CE9D9
:1004000005C08091840090918500049690938900A6
:10041000809388008FEF8093350108C0809184001D
:100420009091850084549C4948F3EBCFFF91EF9164
:10043000BF91AF919F918F917F916F915F914F91FC
:100440003F912F910F900FBE0F901F90189586E34C
:1004500091E00E948D0089E391E00E948D008CE381
:1004600091E00E948D000895CF93DF938DEC91E091
:100470000E94FD048823D9F18DEC91E00E941105C2
:100480008E3621F481E080933F0131C08537E9F455
:10049000C0E0D0E08091000161E00E947A0364E155
:1004A00070E080E090E00E94F6028091000160E040
:1004B0000E947A0364E170E080E090E00E94F6021E
:1004C0002196C233D10531F712C0843681F4809170
:1004D000020161E00E947A0364E170E080E090E054
:1004E0000E94F6028091020160E00E947A03DF918F
:1004F000CF9108950F931F9306E311E0C80166E0C2
:1005000070E00E946301C8016AEF75E00E94A700D5
:100510008091000161E00E945A038091020161E034
:100520000E945A038DEC91E040E855E260E070E0F3
:100530000E9404048091040161E00E945A038091AA
:10054000040161E00E947A031F910F9108950E94B7
:1005500020030E947A020E943402FDCF1F920F9264
:100560000FB60F9211242F933F938F939F93AF93C6
:10057000BF938091440190914501A0914601B091B3
:100580004701309148010196A11DB11D232F2D5F18
:100590002D3720F02D570196A11DB11D2093480144
:1005A0008093440190934501A0934601B093470185
:1005B0008091400190914101A0914201B09143018D
:1005C0000196A11DB11D8093400190934101A0931C
:1005D0004201B0934301BF91AF919F918F913F91A1
:1005E0002F910F900FBE0F901F901895EF92FF92D2
:1005F0000F931F937B018C018FB7F89440914401B6
:100600005091450160914601709147018FBF2FB70E
:10061000F8948091440190914501A0914601B091D8
:1006200047012FBF841B950BA60BB70BE816F906E5
:100630000A071B0760F71F910F91FF90EF90089535
:10064000789484B5826084BD84B5816084BD85B5AD
:10065000826085BD85B5816085BDEEE6F0E0808174
:1006600081608083E1E8F0E0808182608083808126
:1006700081608083E0E8F0E0808181608083E1EB4D
:10068000F0E0808184608083E0EBF0E08081816035
:100690008083EAE7F0E080818460808380818260EB
:1006A00080838081816080838081806880831092D4
:1006B000C1000895282F30E0C90186569F4FFC01E4
:1006C00094912A573F4FF9018491882391F0E82FA4
:1006D000F0E0EE0FFF1FE859FF4FA591B49166239C
:1006E00029F48C91909589238C9308958C91892B72
:1006F0008C930895482F50E0CA0182559F4FFC010A
:100700002491CA0186569F4FFC0194914A575F4F2E
:10071000FA0134913323D1F1222331F1233021F432
:10072000809180008F7705C0243031F48091800063
:100730008F7D8093800018C0213019F484B58F77A5
:1007400004C0223021F484B58F7D84BD0DC02630D5
:1007500021F48091B0008F7705C0273029F4809173
:10076000B0008F7D8093B000E32FF0E0EE0FFF1F0D
:10077000EE58FF4FA591B491662329F48C91909582
:1007800089238C9308958C91892B8C9308951F92C3
:100790000F920FB60F9211242F933F934F935F93B5
:1007A0006F937F938F939F93AF93BF93EF93FF9339
:1007B0004091C600E091C901F091CA01CF010196B4
:1007C00060E870E00E94E8059C018091CB01909167
:1007D000CC012817390739F0E75BFE4F408330938F
:1007E000CA012093C901FF91EF91BF91AF919F91F1
:1007F0008F917F916F915F914F913F912F910F90CA
:100800000FBE0F901F9018955F926F927F928F92FC
:100810009F92AF92BF92CF92DF92EF92FF920F938F
:100820001F93CF93DF93EC013A014B01413482E4F3
:1008300058078FE0680780E078070CF07FC060E819
:1008400074E88EE190E0A40193010E941D062150FE
:10085000304040405040CA01B90122E030E040E061
:1008600050E00E941D0659016A01A60195012095DC
:1008700030954095509594E0220F331F441F551F2B
:100880009A95D1F760E074E284EF90E00E941D0633
:10089000CA01B9012FEF30E040E050E00E94BD05F1
:1008A000A40193010E941D06C90181509F4F181693
:1008B00019061CF4522E5A9403C055245394521A0C
:1008C00060E079E08DE390E0A40193010E941D06B1
:1008D0002150304040405040CA01B90122E030E090
:1008E00040E050E00E941D062095309540955095BF
:1008F00083E0220F331F441F551F8A95D1F760E014
:1009000074E284EF90E00E941D06CA01B9012FEF46
:1009100030E040E050E00E94BD05A40193010E9438
:100920001D06C90181509F4F181619061CF4822F0D
:10093000815002C081E0821B851500F5E885F985AC
:1009400081E090E00A8802C0880F991F0A94E2F7BC
:10095000808360E079E08DE390E0A40193010E9440
:100960001D062150304040405040CA01B90122E0EC
:1009700030E040E050E00E941D0604C0E885F985A3
:1009800010829501EC81FD813083EE81FF8120830F
:10099000EA85FB85208141E050E0CA010E8402C057
:1009A000880F991F0A94E2F7282B2083EA85FB859C
:1009B0002081CA010F8402C0880F991F0A94E2F7B0
:1009C000282B2083EA85FB858081088802C0440F9C
:1009D000551F0A94E2F7842B8083DF91CF911F91FA
:1009E0000F91FF90EF90DF90CF90BF90AF909F90CE
:1009F0008F907F906F905F900895DC011296ED913B
:100A0000FC911397E058FF4F8191919180589F4F2F
:100A100020813181821B930B60E870E00E94E80521
:100A20000895CF93DF93DC011296ED91FC9113971B
:100A3000EF01CE57DF4F48815981E058FF4F808149
:100A40009181E058F0408417950719F42FEF3FEF9C
:100A50000CC0E40FF51F2081CA01019660E870E028
:100A60000E94E8059983888330E0C901DF91CF9126
:100A70000895FC01A085B18521898C9190E0022E1A
:100A800002C0959587950A94E2F780FFF6CF04841B
:100A9000F585E02D608308958AE091E09093CE0182
:100AA0008093CD0189E491E09093D0018093CF01B0
:100AB00085EC90E09093D2018093D10184EC90E09A
:100AC0009093D4018093D30180EC90E09093D60171
:100AD0008093D50181EC90E09093D8018093D70169
:100AE00086EC90E09093DA018093D90184E08093C2
:100AF000DB0183E08093DC0187E08093DD0185E00A
:100B00008093DE0181E08093DF0108950F931F93AE
:100B1000CF93DF938C01EB0109C02196D801ED91B1
:100B2000FC910190F081E02DC80109956881662350
:100B3000A1F7DF91CF911F910F910895EF92FF924E
:100B40000F931F93CF93DF938C017B01EA010CC0BD
:100B5000D7016D917D01D801ED91FC910190F0815B
:100B6000E02DC80109952197209791F7DF91CF914A
:100B70001F910F91FF90EF900895629FD001739F96
:100B8000F001829FE00DF11D649FE00DF11D929F29
:100B9000F00D839FF00D749FF00D659FF00D992768
:100BA000729FB00DE11DF91F639FB00DE11DF91F8C
:100BB000BD01CF0111240895991B79E004C0991F4C
:100BC000961708F0961B881F7A95C9F780950895A7
:100BD00097FB092E07260AD077FD04D049D006D00E
:100BE00000201AF4709561957F4F0895F6F790955F
:100BF00081959F4F0895A1E21A2EAA1BBB1BFD01F0
:100C00000DC0AA1FBB1FEE1FFF1FA217B307E407EB
:100C1000F50720F0A21BB30BE40BF50B661F771F43
:100C2000881F991F1A9469F7609570958095909523
:100C30009B01AC01BD01CF01089597FB092E05264C
:100C40000ED057FD04D0D7DF0AD0001C38F45095E1
:100C50004095309521953F4F4F4F5F4F0895F6F7E0
:100C600090958095709561957F4F8F4F9F4F089518
:100C7000AA1BBB1B51E107C0AA1FBB1FA617B707C2
:100C800010F0A61BB70B881F991F5A95A9F78095DE
:100C90009095BC01CD010895EE0FFF1F0590F491D2
:080CA000E02D0994F894FFCF48
:100CA8000E000F000D0000000000390586059E05A6
:00000001FF
