:100000000C9461000C947E000C947E000C947E0095
:100010000C947E000C947E000C947E000C947E0068
:100020000C947E000C947E000C947E000C947E0058
:100030000C947E000C947E000C947E000C947E0048
:100040000C94D9000C947E000C947E000C947E00DD
:100050000C947E000C947E000C947E000C947E0028
:100060000C947E000C947E00000000002400270009
:100070002A0000000000250028002B0000000000DE
:1000800023002600290004040404040404040202DA
:100090000202020203030303030301020408102007
:1000A0004080010204081020010204081020000012
:1000B0000007000201000003040600000000000029
:1000C000000011241FBECFEFD8E0DEBFCDBF11E08E
:1000D000A0E0B1E0EEE4F3E002C005900D92A030A4
:1000E000B107D9F711E0A0E0B1E001C01D92A9303D
:1000F000B107E1F70E94D2000C94A5010C94000016
:10010000EF92FF920F931F9308E810E084EC99E0C0
:10011000F8019183808360EB74E080E090E00E94BE
:1001200021018BEDE82E8BE0F82EF801F182E082C0
:1001300068EB7BE080E090E00E94210182EF9DE08F
:10014000F8019183808360EB74E080E090E00E948E
:100150002101F801F182E08268EB7BE080E090E031
:100160000E9421011F910F91FF90EF90089589E067
:1001700061E00E9485018AE061E00E9485018AE1D8
:100180008093810082EA809380008FE39CE99093C2
:100190008700809386008BED9BE09093890080938D
:1001A000880008950E944B010E94B7000E948000C1
:1001B000FDCF1F920F920FB60F9211242F933F93F2
:1001C0008F939F93AF93BF9380910401909105010A
:1001D000A0910601B0910701309108010196A11D7F
:1001E000B11D232F2D5F2D3720F02D570196A11D16
:1001F000B11D209308018093040190930501A09301
:100200000601B09307018091000190910101A09136
:100210000201B09103010196A11DB11D809300015F
:1002200090930101A0930201B0930301BF91AF919C
:100230009F918F913F912F910F900FBE0F901F9024
:100240001895EF92FF920F931F937B018C018FB74C
:10025000F89440910401509105016091060170915C
:1002600007018FBF2FB7F894809104019091050189
:10027000A0910601B09107012FBF841B950BA60B1F
:10028000B70BE816F9060A071B0760F71F910F91D5
:10029000FF90EF900895789484B5826084BD84B512
:1002A000816084BD85B5826085BD85B5816085BD71
:1002B000EEE6F0E0808181608083E1E8F0E080811B
:1002C00082608083808181608083E0E8F0E08081CB
:1002D00081608083E1EBF0E0808184608083E0EBEB
:1002E000F0E0808181608083EAE7F0E080818460D3
:1002F000808380818260808380818160808380812F
:10030000806880831092C1000895282F30E0C901D1
:1003100086569F4FFC0194912A573F4FF9018491D3
:10032000882391F0E82FF0E0EE0FFF1FE859FF4F10
:10033000A591B491662329F48C91909589238C938F
:0E03400008958C91892B8C930895F894FFCF2B
:00000001FF
