:100000000C9462000C948A000C948A000C948A0070
:100010000C948A000C948A000C948A000C948A0038
:100020000C948A000C948A000C948A000C948A0028
:100030000C948A000C948A000C948A000C948A0018
:100040000C9409010C948A000C9471020C948A009F
:100050000C948A000C948A000C948A000C948A00F8
:100060000C948A000C948A000000000024002700F1
:100070002A0000000000250028002B0000000000DE
:1000800023002600290004040404040404040202DA
:100090000202020203030303030301020408102007
:1000A0004080010204081020010204081020000012
:1000B0000007000201000003040600000000000029
:1000C0000000BA0311241FBECFEFD8E0DEBFCDBFC2
:1000D00011E0A0E0B1E0E0ECF9E002C005900D9283
:1000E000AA32B107D9F711E0AAE2B1E001C01D922E
:1000F000AE3CB107E1F710E0C4ECD0E004C02297B9
:10010000FE010E94DA04C23CD107C9F70E94020135
:100110000C94DE040C94000080911B010E942202CA
:1001200090932B0180932A0180911D010E9422024D
:100130009C0190932D0180932C0180912A01909134
:100140002B01019779F48091150161E00E94D5019E
:100150008091170160E00E94D5018BEB91E060E097
:1001600071E020C02130310579F48091170161E000
:100170000E94D5018091150160E00E94D5018BEBB2
:1001800091E066E071E00EC08091150160E00E9490
:10019000D5018091170160E00E94D5018BEB91E0C1
:1001A0006CE071E00E944A046AE070E080E090E058
:1001B0000E945101089580911B0160E00E94B501E9
:1001C00080911D0160E00E94B5018091150161E000
:1001D0000E94B5018091170161E00E94B5018BEB8F
:1001E00091E040E855E260E070E00E94AE0280914C
:1001F000190161E00E94B5018091190161E00E943E
:10020000D50108950E947B010E94DB000E948C00B2
:10021000FDCF1F920F920FB60F9211242F933F9391
:100220008F939F93AF93BF9380913201909133014D
:10023000A0913401B0913501309136010196A11D94
:10024000B11D232F2D5F2D3720F02D570196A11DB5
:10025000B11D209336018093320190933301A09316
:100260003401B093350180912E0190912F01A0911E
:100270003001B09131010196A11DB11D80932E0175
:1002800090932F01A0933001B0933101BF91AF91B2
:100290009F918F913F912F910F900FBE0F901F90C4
:1002A0001895EF92FF920F931F937B018C018FB7EC
:1002B000F894409132015091330160913401709172
:1002C00035018FBF2FB7F89480913201909133019F
:1002D000A0913401B09135012FBF841B950BA60B63
:1002E000B70BE816F9060A071B0760F71F910F9175
:1002F000FF90EF900895789484B5826084BD84B5B2
:10030000816084BD85B5826085BD85B5816085BD10
:10031000EEE6F0E0808181608083E1E8F0E08081BA
:1003200082608083808181608083E0E8F0E080816A
:1003300081608083E1EBF0E0808184608083E0EB8A
:10034000F0E0808181608083EAE7F0E08081846072
:1003500080838081826080838081816080838081CE
:10036000806880831092C1000895282F30E0C90171
:1003700086569F4FFC0194912A573F4FF901849173
:10038000882391F0E82FF0E0EE0FFF1FE859FF4FB0
:10039000A591B491662329F48C91909589238C932F
:1003A00008958C91892B8C930895482F50E0CA01B1
:1003B00082559F4FFC012491CA0186569F4FFC0134
:1003C00094914A575F4FFA0134913323D1F122239C
:1003D00031F1233021F4809180008F7705C02430E3
:1003E00031F4809180008F7D8093800018C021308F
:1003F00019F484B58F7704C0223021F484B58F7D41
:1004000084BD0DC0263021F48091B0008F7705C0E7
:10041000273029F48091B0008F7D8093B000E32FC6
:10042000F0E0EE0FFF1FEE58FF4FA591B491662349
:1004300029F48C91909589238C9308958C91892B24
:100440008C930895682F70E0CB0182559F4FFC017B
:100450002491CB0186569F4FFC0144916A577F4FF0
:10046000FB019491992319F420E030E038C0222355
:1004700031F1233021F4809180008F7705C0243042
:1004800031F4809180008F7D8093800018C02130EE
:1004900019F484B58F7704C0223021F484B58F7DA0
:1004A00084BD0DC0263021F48091B0008F7705C047
:1004B000273029F48091B0008F7D8093B000892F80
:1004C00090E0880F991F84589F4FFC01A591B4912B
:1004D0008C9120E030E0842311F021E030E0C9016C
:1004E00008951F920F920FB60F9211242F933F93EE
:1004F0004F935F936F937F938F939F93AF93BF932C
:10050000EF93FF934091C600E091B701F091B801DD
:10051000CF01019660E870E00E9474049C01809114
:10052000B9019091BA012817390739F0E95CFE4FFB
:1005300040833093B8012093B701FF91EF91BF91B1
:10054000AF919F918F917F916F915F914F913F916B
:100550002F910F900FBE0F901F9018955F926F9282
:100560007F928F929F92AF92BF92CF92DF92EF9243
:10057000FF920F931F93CF93DF93EC013A014B014E
:10058000413482E458078FE0680780E078070CF078
:100590007FC060E874E88EE190E0A40193010E94BE
:1005A000A9042150304040405040CA01B90122E026
:1005B00030E040E050E00E94A90459016A01A60120
:1005C0009501209530954095509594E0220F331F6A
:1005D000441F551F9A95D1F760E074E284EF90E0D4
:1005E0000E94A904CA01B9012FEF30E040E050E0B9
:1005F0000E945504A40193010E94A904C9018150DD
:100600009F4F181619061CF4522E5A9403C05524F5
:100610005394521A60E079E08DE390E0A4019301D5
:100620000E94A9042150304040405040CA01B90105
:1006300022E030E040E050E00E94A904209530958F
:100640004095509583E0220F331F441F551F8A9514
:10065000D1F760E074E284EF90E00E94A904CA013F
:10066000B9012FEF30E040E050E00E945504A401B2
:1006700093010E94A904C90181509F4F18161906C1
:100680001CF4822F815002C081E0821B851500F589
:10069000E885F98581E090E00A8802C0880F991FFB
:1006A0000A94E2F7808360E079E08DE390E0A401B2
:1006B00093010E94A9042150304040405040CA019B
:1006C000B90122E030E040E050E00E94A90404C0FB
:1006D000E885F98510829501EC81FD813083EE81FA
:1006E000FF812083EA85FB85208141E050E0CA013B
:1006F0000E8402C0880F991F0A94E2F7282B2083EA
:10070000EA85FB852081CA010F8402C0880F991FEA
:100710000A94E2F7282B2083EA85FB8580810888EC
:1007200002C0440F551F0A94E2F7842B8083DF91A7
:10073000CF911F910F91FF90EF90DF90CF90BF90DE
:10074000AF909F908F907F906F905F900895FC0185
:10075000A085B18521898C9190E0022E02C09595EB
:1007600087950A94E2F780FFF6CF0484F585E02DA3
:100770006083089583E291E09093BC018093BB0174
:1007800087E391E09093BE018093BD0185EC90E0FA
:100790009093C0018093BF0184EC90E09093C201DC
:1007A0008093C10180EC90E09093C4018093C301D9
:1007B00081EC90E09093C6018093C50186EC90E0B7
:1007C0009093C8018093C70184E08093C90183E0BE
:1007D0008093CA0187E08093CB0185E08093CC01B0
:1007E00081E08093CD0108950F931F93CF93DF9302
:1007F0008C01EB0109C02196D801ED91FC9101908B
:10080000F081E02DC801099568816623A1F7DF9189
:10081000CF911F910F910895EF92FF920F931F9325
:10082000CF93DF938C017B01EA010CC0D7016D915E
:100830007D01D801ED91FC910190F081E02DC8017E
:1008400009952197209791F7DF91CF911F910F91F3
:10085000FF90EF900895DC01ED91FC910280F3810F
:10086000E02D099508950F931F938C01DC01ED9104
:10087000FC910190F081E02D6DE00995D801ED919A
:10088000FC910190F081E02DC8016AE009951F916B
:100890000F9108950F931F938C010E942B04C801A0
:1008A0000E9433041F910F910895629FD001739F9E
:1008B000F001829FE00DF11D649FE00DF11D929FFC
:1008C000F00D839FF00D749FF00D659FF00D99273B
:1008D000729FB00DE11DF91F639FB00DE11DF91F5F
:1008E000BD01CF011124089597FB092E07260AD0D8
:1008F00077FD04D049D006D000201AF47095619598
:100900007F4F0895F6F7909581959F4F0895A1E246
:100910001A2EAA1BBB1BFD010DC0AA1FBB1FEE1F79
:10092000FF1FA217B307E407F50720F0A21BB30BC4
:10093000E40BF50B661F771F881F991F1A9469F740
:1009400060957095809590959B01AC01BD01CF019C
:10095000089597FB092E05260ED057FD04D0D7DF4A
:100960000AD0001C38F450954095309521953F4FA2
:100970004F4F5F4F0895F6F790958095709561956C
:100980007F4F8F4F9F4F0895AA1BBB1B51E107C09C
:10099000AA1FBB1FA617B70710F0A61BB70B881F0F
:1009A000991F5A95A9F780959095BC01CD0108959E
:1009B000EE0FFF1F0590F491E02D0994F894FFCFFE
:1009C00050696E20310050696E203200426F7468A9
:1009D000204F46460009000A000D000200030000F7
:0A09E000000000A703F4030C04005C
:00000001FF
